{
  "address": "0xe7f1725E7734CE288F8367e1Bb143E90bb3F0512",
  "abi": [
    {
      "inputs": [
        {
          "internalType": "address",
          "name": "_owner",
          "type": "address"
        },
        {
          "internalType": "uint16",
          "name": "_fee",
          "type": "uint16"
        },
        {
          "internalType": "uint16",
          "name": "_protocolFee",
          "type": "uint16"
        }
      ],
      "stateMutability": "nonpayable",
      "type": "constructor"
    },
    {
      "anonymous": false,
      "inputs": [
        {
          "indexed": true,
          "internalType": "address",
          "name": "owner",
          "type": "address"
        }
      ],
      "name": "AcceptOwner",
      "type": "event"
    },
    {
      "anonymous": false,
      "inputs": [
        {
          "indexed": true,
          "internalType": "contract IERC20",
          "name": "asset",
          "type": "address"
        },
        {
          "indexed": true,
          "internalType": "contract IERC20",
          "name": "collateral",
          "type": "address"
        },
        {
          "indexed": false,
          "internalType": "contract IPair",
          "name": "pair",
          "type": "address"
        }
      ],
      "name": "CreatePair",
      "type": "event"
    },
    {
      "anonymous": false,
      "inputs": [
        {
          "indexed": true,
          "internalType": "address",
          "name": "pendingOwner",
          "type": "address"
        }
      ],
      "name": "SetOwner",
      "type": "event"
    },
    {
      "inputs": [],
      "name": "acceptOwner",
      "outputs": [],
      "stateMutability": "nonpayable",
      "type": "function"
    },
    {
      "inputs": [
        {
          "internalType": "contract IERC20",
          "name": "asset",
          "type": "address"
        },
        {
          "internalType": "contract IERC20",
          "name": "collateral",
          "type": "address"
        }
      ],
      "name": "createPair",
      "outputs": [
        {
          "internalType": "contract IPair",
          "name": "pair",
          "type": "address"
        }
      ],
      "stateMutability": "nonpayable",
      "type": "function"
    },
    {
      "inputs": [],
      "name": "fee",
      "outputs": [
        {
          "internalType": "uint16",
          "name": "",
          "type": "uint16"
        }
      ],
      "stateMutability": "view",
      "type": "function"
    },
    {
      "inputs": [
        {
          "internalType": "contract IERC20",
          "name": "",
          "type": "address"
        },
        {
          "internalType": "contract IERC20",
          "name": "",
          "type": "address"
        }
      ],
      "name": "getPair",
      "outputs": [
        {
          "internalType": "contract IPair",
          "name": "",
          "type": "address"
        }
      ],
      "stateMutability": "view",
      "type": "function"
    },
    {
      "inputs": [],
      "name": "owner",
      "outputs": [
        {
          "internalType": "address",
          "name": "",
          "type": "address"
        }
      ],
      "stateMutability": "view",
      "type": "function"
    },
    {
      "inputs": [],
      "name": "pendingOwner",
      "outputs": [
        {
          "internalType": "address",
          "name": "",
          "type": "address"
        }
      ],
      "stateMutability": "view",
      "type": "function"
    },
    {
      "inputs": [],
      "name": "protocolFee",
      "outputs": [
        {
          "internalType": "uint16",
          "name": "",
          "type": "uint16"
        }
      ],
      "stateMutability": "view",
      "type": "function"
    },
    {
      "inputs": [
        {
          "internalType": "address",
          "name": "_pendingOwner",
          "type": "address"
        }
      ],
      "name": "setOwner",
      "outputs": [],
      "stateMutability": "nonpayable",
      "type": "function"
    }
  ],
  "transactionHash": "0x6ca2ff7a0efabc1574746a7a0334b805a0b75a947cf7f839c4f49346ec4585f0",
  "args": [
    "0xf39Fd6e51aad88F6F4ce6aB8827279cffFb92266",
    30,
    30
  ],
  "solcInputHash": "bb4736987b1c161bad06cb5289c3cb07",
  "bytecode": "0x60c060405234801561001057600080fd5b506040516150cc3803806150cc83398101604081905261002f916100cf565b6001600160a01b0383166100775760405162461bcd60e51b815260040161006e906020808252600490820152634531303160e01b604082015260600190565b60405180910390fd5b600080546001600160a01b039094166001600160a01b0319909416939093179092556001600160f01b031960f091821b811660805291901b1660a05261011e565b805161ffff811681146100ca57600080fd5b919050565b6000806000606084860312156100e3578283fd5b83516001600160a01b03811681146100f9578384fd5b9250610107602085016100b8565b9150610115604085016100b8565b90509250925092565b60805160f01c60a05160f01c614f766101566000396000818160d701526103c501526000818161012401526103a40152614f766000f3fe608060405234801561001057600080fd5b50600436106100885760003560e01c8063ddca3f431161005b578063ddca3f431461011f578063e30c397814610146578063e6a4390514610159578063ebbc49651461018d57600080fd5b806313af40351461008d5780638da5cb5b146100a2578063b0e21e8a146100d2578063c9c653961461010c575b600080fd5b6100a061009b36600461054c565b610195565b005b6000546100b5906001600160a01b031681565b6040516001600160a01b0390911681526020015b60405180910390f35b6100f97f000000000000000000000000000000000000000000000000000000000000000081565b60405161ffff90911681526020016100c9565b6100b561011a36600461056f565b61026a565b6100f97f000000000000000000000000000000000000000000000000000000000000000081565b6001546100b5906001600160a01b031681565b6100b561016736600461056f565b60026020908152600092835260408084209091529082529020546001600160a01b031681565b6100a06104b3565b6000546001600160a01b031633146101e15760405162461bcd60e51b81526004016101d8906020808252600490820152632298981960e11b604082015260600190565b60405180910390fd5b6001600160a01b0381166102205760405162461bcd60e51b81526004016101d8906020808252600490820152634531303160e01b604082015260600190565b600180546001600160a01b0319166001600160a01b0383169081179091556040517f167d3e9c1016ab80e58802ca9da10ce5c6a0f4debc46a2e7a2cd9e56899a4fb590600090a250565b6000816001600160a01b0316836001600160a01b031614156102b75760405162461bcd60e51b81526004016101d8906020808252600490820152634531303360e01b604082015260600190565b6001600160a01b038316158015906102d757506001600160a01b03821615155b61030c5760405162461bcd60e51b81526004016101d8906020808252600490820152634531303160e01b604082015260600190565b6001600160a01b0383811660009081526002602090815260408083208685168452909152902054161561036a5760405162461bcd60e51b81526004016101d890602080825260049082015263114c4c0d60e21b604082015260600190565b604080516001600160a01b0380861660208301528416918101919091526060016040516020818303038152906040528051906020012083837f00000000000000000000000000000000000000000000000000000000000000007f00000000000000000000000000000000000000000000000000000000000000006040516103f09061053f565b6001600160a01b03948516815293909216602084015261ffff90811660408401521660608201526080018190604051809103906000f590508015801561043a573d6000803e3d6000fd5b506001600160a01b0384811660008181526002602090815260408083208886168085529083529281902080546001600160a01b0319169587169586179055519384529394509290917f58e59580cc0153b14c553b340b7d7ae6ab3df9747aa39f82941816c5db3869f2910160405180910390a392915050565b6001546001600160a01b031633146104f65760405162461bcd60e51b81526004016101d8906020808252600490820152632298981960e11b604082015260600190565b60008054336001600160a01b0319918216811783556001805490921690915560405190917f31775a018194f26a792a0203e972faf15303e08a913cdc54497278e48de6690991a2565b614981806105c083390190565b60006020828403121561055d578081fd5b8135610568816105a7565b9392505050565b60008060408385031215610581578081fd5b823561058c816105a7565b9150602083013561059c816105a7565b809150509250929050565b6001600160a01b03811681146105bc57600080fd5b5056fe61012060405260016002553480156200001757600080fd5b5060405162004981380380620049818339810160408190526200003a91620000ae565b33606090811b6080526001600160601b031994811b851660a0529290921b90921660c0526001600160f01b031960f092831b811660e052911b16610100526200010a565b80516001600160a01b03811681146200009657600080fd5b919050565b805161ffff811681146200009657600080fd5b60008060008060808587031215620000c4578384fd5b620000cf856200007e565b9350620000df602086016200007e565b9250620000ef604086016200009b565b9150620000ff606086016200009b565b905092959194509250565b60805160601c60a05160601c60c05160601c60e05160f01c6101005160f01c6147ac620001d56000396000818161037b015281816108b101526120440152600081816106070152818161089001526120230152600081816105e001528181610cb60152818161147201528181611b6001528181612b52015261323f0152600081816101e501528181610c84015281816113bf01528181611b3f01528181611daf015281816125c501528181612ab401526132830152600081816105b90152611cc201526147ac6000f3fe608060405234801561001057600080fd5b506004361061014d5760003560e01c8063aae6fcb4116100c3578063bbc538fb1161007c578063bbc538fb146104f8578063c0eb96e814610584578063c45a0155146105b4578063d8dfeb45146105db578063ddca3f4314610602578063e97b7cc01461062957600080fd5b8063aae6fcb41461031c578063b064fb3f1461033c578063b0e21e8a14610376578063b5e60c3c146103b0578063b77ee839146103d3578063baadc6fe1461048257600080fd5b806360553a091161011557806360553a091461024a5780637272efec1461028e57806381e6f6d1146102b257806393910a68146102c5578063a440fef9146102e8578063a7a7b224146102fb57600080fd5b80630f79fca5146101525780631eb9cd431461017857806338d52e0f146101e057806357a3542e1461021f57806357cb264014610241575b600080fd5b610165610160366004613e45565b61065c565b6040519081526020015b60405180910390f35b6101d3610186366004613e15565b6040805180820190915260008082526020820152506000908152600160209081526040918290208251808401909352546001600160801b038082168452600160801b909104169082015290565b60405161016f9190614216565b6102077f000000000000000000000000000000000000000000000000000000000000000081565b6040516001600160a01b03909116815260200161016f565b61023261022d366004613c12565b610689565b60405161016f93929190614471565b61016560005481565b610276610258366004613e15565b6000908152600160205260409020600501546001600160781b031690565b6040516001600160781b03909116815260200161016f565b61016561029c366004613e15565b6000908152600160208190526040909120015490565b6101d36102c0366004613da3565b610de2565b6102d86102d3366004613c12565b61152c565b60405161016f949392919061448c565b6101656102f6366004613bba565b611c95565b61030e610309366004613c12565b611e20565b60405161016f92919061436c565b61032f61032a366004613e74565b6126ef565b60405161016f91906141ce565b61016561034a366004613e45565b60008281526001602090815260408083206001600160a01b038516845260090190915290205492915050565b61039d7f000000000000000000000000000000000000000000000000000000000000000081565b60405161ffff909116815260200161016f565b6101656103be366004613e15565b60009081526001602052604090206002015490565b6104756103e1366004613e45565b6040805160808101825260008082526020820181905291810182905260608101919091525060008281526001602081815260408084206001600160a01b0386168552600801825292839020835160808101855281546001600160701b038082168352600160701b91829004811694830194909452919093015480831694840194909452909204909116606082015292915050565b60405161016f91906141c0565b6104ce610490366004613e15565b60009081526001602052604090206005810154600690910154600160781b9091046001600160701b039081169281831692600160701b900490911690565b604080516001600160701b039485168152928416602084015292169181019190915260600161016f565b610475610506366004613e15565b60408051608081018252600080825260208201819052918101829052606081019190915250600090815260016020908152604091829020825160808101845260038201546001600160701b038082168352600160701b9182900481169483019490945260049092015480841694820194909452920416606082015290565b610597610592366004613c45565b6127a0565b604080519283526001600160801b0390911660208301520161016f565b6102077f000000000000000000000000000000000000000000000000000000000000000081565b6102077f000000000000000000000000000000000000000000000000000000000000000081565b61039d7f000000000000000000000000000000000000000000000000000000000000000081565b61063c610637366004613c12565b612c15565b604080516001600160801b0393841681529290911660208301520161016f565b60008281526001602090815260408083206001600160a01b03851684526007019091529020545b92915050565b6040805160608101825260008082526020820181905291810182905281906002546001146106d25760405162461bcd60e51b81526004016106c990614148565b60405180910390fd5b60028055833542106106f65760405162461bcd60e51b81526004016106c99061412a565b60006107086040860160208701613bba565b6001600160a01b0316141561072f5760405162461bcd60e51b81526004016106c9906141a2565b60006107416060860160408701613bba565b6001600160a01b031614156107685760405162461bcd60e51b81526004016106c9906141a2565b306107796040860160208701613bba565b6001600160a01b031614156107a05760405162461bcd60e51b81526004016106c990614184565b306107b16060860160408701613bba565b6001600160a01b031614156107d85760405162461bcd60e51b81526004016106c990614184565b6107e86080850160608601613dbe565b6001600160701b031661080d5760405162461bcd60e51b81526004016106c99061410c565b83356000908152600160205260409020600281015461083e5760405162461bcd60e51b81526004016106c990614166565b600080735FbDB2315678afecb367f032d93F642f64180aa36384ab449b88358561086e60808c0160608d01613dbe565b61087e60a08d0160808e01613dbe565b61088e60c08e0160a08f01613dbe565b7f00000000000000000000000000000000000000000000000000000000000000007f00000000000000000000000000000000000000000000000000000000000000006040518863ffffffff1660e01b81526004016108f297969594939291906143c1565b60a06040518083038186803b15801561090a57600080fd5b505af415801561091e573d6000803e3d6000fd5b505050506040513d601f19601f820116820180604052508101906109429190613d08565b60018601805493975091945092508391600090610960908490614624565b92505081905550806000808282546109789190614624565b90915550610a1e90508460098501600061099860608c0160408d01613bba565b6001600160a01b0316815260208101919091526040016000209081546001810183556000928352602092839020825190820180549484015160409094015163ffffffff16600160e01b026001600160e01b036001600160701b03958616600160701b026001600160e01b0319909716959093169490941794909417169190911790915590565b9450610a306080880160608901613dbe565b83546001600160701b0391909116908490600090610a589084906001600160801b0316614683565b92506101000a8154816001600160801b0302191690836001600160801b0316021790555083602001516001600160701b03168360000160000160000160108282829054906101000a90046001600160801b0316610ab59190614602565b82546001600160801b039182166101009390930a92830291909202199091161790555083516005840180546001600160701b0390921691600090610b039084906001600160781b03166145e0565b92506101000a8154816001600160781b0302191690836001600160781b03160217905550866060016020810190610b3a9190613dbe565b600584018054600f90610b5e908490600160781b90046001600160701b031661465b565b92506101000a8154816001600160701b0302191690836001600160701b03160217905550866080016020810190610b959190613dbe565b600684018054600090610bb29084906001600160701b03166145b5565b92506101000a8154816001600160701b0302191690836001600160701b031602179055508660a0016020810190610be99190613dbe565b600684018054600e90610c0d908490600160701b90046001600160701b03166145b5565b92506101000a8154816001600160701b0302191690836001600160701b03160217905550866060016020810190610c449190613dbe565b6001600160701b03169550610c5982876146a3565b9550610c6581876146a3565b9550610cab610c7a6040890160208a01613bba565b6001600160a01b037f000000000000000000000000000000000000000000000000000000000000000016908861335f565b6020840151610ce8907f000000000000000000000000000000000000000000000000000000000000000090610ce360c08b018b614570565b6133b6565b6005830154600684015460408051600160781b9093046001600160701b0390811684528083166020850152600160701b909204909116908201528735907f1147bcb0e71ebff15e66fd21a23234fe9acc1891f46595062d71501b0cacbdaa9060600160405180910390a2610d626060880160408901613bba565b6001600160a01b0316610d7b6040890160208a01613bba565b6001600160a01b0316336001600160a01b03167fc4726516366593076075d3550bf236094106d5d311576a357a1f05967262d0798a600001358a8a8a8989604051610dcb969594939291906144ae565b60405180910390a450506001600255509193909250565b6040805180820190915260008082526020820152600254600114610e185760405162461bcd60e51b81526004016106c990614148565b600280558135421015610e565760405162461bcd60e51b81526004016106c9906020808252600490820152634532303360e01b604082015260600190565b6000610e686040840160208501613bba565b6001600160a01b03161415610e8f5760405162461bcd60e51b81526004016106c9906141a2565b6000610ea16060840160408501613bba565b6001600160a01b03161415610ec85760405162461bcd60e51b81526004016106c9906141a2565b30610ed96040840160208501613bba565b6001600160a01b03161415610f005760405162461bcd60e51b81526004016106c990614184565b30610f116060840160408501613bba565b6001600160a01b03161415610f385760405162461bcd60e51b81526004016106c990614184565b610f486080830160608401613dbe565b6001600160701b0316151580610f755750610f6960a0830160808401613dbe565b6001600160701b031615155b80610f975750610f8b60c0830160a08401613dbe565b6001600160701b031615155b80610fb95750610fad60e0830160c08401613dbe565b6001600160701b031615155b610fd55760405162461bcd60e51b81526004016106c99061410c565b81356000908152600160205260409081902090516317db9b6b60e01b8152735FbDB2315678afecb367f032d93F642f64180aa3906317db9b6b9061102290849060608801906004016141dc565b604080518083038186803b15801561103957600080fd5b505af415801561104d573d6000803e3d6000fd5b505050506040513d601f19601f820116820180604052508101906110719190613d3d565b91506110836080840160608501613dbe565b6003820180546000906110a09084906001600160701b031661465b565b92506101000a8154816001600160701b0302191690836001600160701b031602179055508260600160200160208101906110da9190613dbe565b600382018054600e906110fe908490600160701b90046001600160701b031661465b565b92506101000a8154816001600160701b0302191690836001600160701b031602179055508260600160400160208101906111389190613dbe565b6004820180546000906111559084906001600160701b031661465b565b92506101000a8154816001600160701b0302191690836001600160701b0316021790555082606001606001602081019061118f9190613dbe565b600482018054600e906111b3908490600160701b90046001600160701b031661465b565b82546001600160701b039182166101009390930a92830291909202199091161790555033600090815260088201602052604090206111f76080850160608601613dbe565b815482906000906112129084906001600160701b031661465b565b92506101000a8154816001600160701b0302191690836001600160701b0316021790555083606001602001602081019061124c9190613dbe565b81548290600e9061126e908490600160701b90046001600160701b031661465b565b92506101000a8154816001600160701b0302191690836001600160701b031602179055508360600160400160208101906112a89190613dbe565b6001820180546000906112c59084906001600160701b031661465b565b92506101000a8154816001600160701b0302191690836001600160701b031602179055508360600160600160208101906112ff9190613dbe565b600182018054600e90611323908490600160701b90046001600160701b031661465b565b92506101000a8154816001600160701b0302191690836001600160701b0316021790555082600001516001600160801b03166000146113ef578251825483906000906113799084906001600160801b0316614683565b92506101000a8154816001600160801b0302191690836001600160801b031602179055506113ef8460200160208101906113b39190613bba565b84516001600160a01b037f00000000000000000000000000000000000000000000000000000000000000001691906001600160801b031661335f565b60208301516001600160801b0316156114a257602083015182548390601090611429908490600160801b90046001600160801b0316614683565b92506101000a8154816001600160801b0302191690836001600160801b031602179055506114a28460400160208101906114639190613bba565b60208501516001600160a01b037f00000000000000000000000000000000000000000000000000000000000000001691906001600160801b031661335f565b6114b26060850160408601613bba565b6001600160a01b03166114cb6040860160208701613bba565b6001600160a01b0316336001600160a01b03167fd3240d81c413bb3991c962b2f29da128e2d22cd3f040b2bfe14f0d2a3d0199a28760000135886060018860405161151893929190614336565b60405180910390a450506001600255919050565b604080516060810182526000808252602082018190529181018290528190819060025460011461156e5760405162461bcd60e51b81526004016106c990614148565b60028055843542106115925760405162461bcd60e51b81526004016106c99061412a565b64010000000042863503106115d25760405162461bcd60e51b81526004016106c99060208082526004908201526308a6460760e31b604082015260600190565b60006115e46040870160208801613bba565b6001600160a01b0316141561160b5760405162461bcd60e51b81526004016106c9906141a2565b600061161d6060870160408801613bba565b6001600160a01b031614156116445760405162461bcd60e51b81526004016106c9906141a2565b306116556040870160208801613bba565b6001600160a01b0316141561167c5760405162461bcd60e51b81526004016106c990614184565b3061168d6060870160408801613bba565b6001600160a01b031614156116b45760405162461bcd60e51b81526004016106c990614184565b6116c46080860160608701613dbe565b6001600160701b03166116e95760405162461bcd60e51b81526004016106c99061410c565b6116f960a0860160808701613dbe565b6001600160701b031661171e5760405162461bcd60e51b81526004016106c99061410c565b61172e60c0860160a08701613dbe565b6001600160701b03166117535760405162461bcd60e51b81526004016106c99061410c565b8435600081815260016020526040812091735FbDB2315678afecb367f032d93F642f64180aa3906397b37914908461179160808c0160608d01613dbe565b6117a160a08d0160808e01613dbe565b6117b160c08e0160a08f01613dbe565b6040518663ffffffff1660e01b81526004016117d1959493929190614380565b60a06040518083038186803b1580156117e957600080fd5b505af41580156117fd573d6000803e3d6000fd5b505050506040513d601f19601f820116820180604052508101906118219190613eab565b919650935090508461185e5760405162461bcd60e51b81526004016106c9906020808252600490820152632299189960e11b604082015260600190565b848260000160020160008282546118759190614624565b9091555085905060078301600061189260408b0160208c01613bba565b6001600160a01b03166001600160a01b0316815260200190815260200160002060008282546118c19190614624565b90915550506001820180548291906000906118dd908490614624565b909155506118fd90508360098401600061099860608c0160408d01613bba565b935061190f6080880160608901613dbe565b82546001600160701b03919091169083906000906119379084906001600160801b0316614602565b92506101000a8154816001600160801b0302191690836001600160801b0316021790555082602001516001600160701b03168260000160000160000160108282829054906101000a90046001600160801b03166119949190614602565b82546001600160801b039182166101009390930a92830291909202199091161790555082516005830180546001600160701b03909216916000906119e29084906001600160781b03166145e0565b92506101000a8154816001600160781b0302191690836001600160781b03160217905550866060016020810190611a199190613dbe565b600583018054600f90611a3d908490600160781b90046001600160701b03166145b5565b92506101000a8154816001600160701b0302191690836001600160701b03160217905550866080016020810190611a749190613dbe565b600683018054600090611a919084906001600160701b03166145b5565b92506101000a8154816001600160701b0302191690836001600160701b031602179055508660a0016020810190611ac89190613dbe565b600683018054600e90611aec908490600160701b90046001600160701b03166145b5565b92506101000a8154816001600160701b0302191690836001600160701b03160217905550866060016020810190611b239190613dbe565b6001600160701b03169550611b388187614624565b9550611b9a7f00000000000000000000000000000000000000000000000000000000000000007f00000000000000000000000000000000000000000000000000000000000000008886602001518b8060c00190611b959190614570565b61348f565b6005820154600683015460408051600160781b9093046001600160701b0390811684528083166020850152600160701b909204909116908201528735907f1147bcb0e71ebff15e66fd21a23234fe9acc1891f46595062d71501b0cacbdaa9060600160405180910390a2611c146060880160408901613bba565b6001600160a01b0316611c2d6040890160208a01613bba565b6001600160a01b0316336001600160a01b03167f88018ff4a4eb65189878e69e43401baaf50cfe5cdc5d0412a32f646d193b88f68a600001358a8a8a8a89604051611c7d969594939291906144e5565b60405180910390a45050600160025592949193509190565b6000600254600114611cb95760405162461bcd60e51b81526004016106c990614148565b600280819055507f00000000000000000000000000000000000000000000000000000000000000006001600160a01b0316638da5cb5b6040518163ffffffff1660e01b815260040160206040518083038186803b158015611d1957600080fd5b505afa158015611d2d573d6000803e3d6000fd5b505050506040513d601f19601f82011682018060405250810190611d519190613bd6565b6001600160a01b0316336001600160a01b031614611d9a5760405162461bcd60e51b81526004016106c9906020808252600490820152632299189b60e11b604082015260600190565b5060008054908055611dd66001600160a01b037f000000000000000000000000000000000000000000000000000000000000000016838361335f565b6040518181526001600160a01b0383169033907fbea3eebc02d46c3713e32d2ca6ab0ee1698c47e76cd1bd7707794dcea8bf56f19060200160405180910390a36001600255919050565b6040805160808101825260008082526020820181905291810182905260608101829052600254600114611e655760405162461bcd60e51b81526004016106c990614148565b6002805582354210611e895760405162461bcd60e51b81526004016106c99061412a565b6000611e9b6040850160208601613bba565b6001600160a01b03161415611ec25760405162461bcd60e51b81526004016106c9906141a2565b6000611ed46060850160408601613bba565b6001600160a01b03161415611efb5760405162461bcd60e51b81526004016106c9906141a2565b30611f0c6040850160208601613bba565b6001600160a01b03161415611f335760405162461bcd60e51b81526004016106c990614184565b30611f446060850160408601613bba565b6001600160a01b03161415611f6b5760405162461bcd60e51b81526004016106c990614184565b611f7b6080840160608501613dbe565b6001600160701b0316611fa05760405162461bcd60e51b81526004016106c99061410c565b823560009081526001602052604090206002810154611fd15760405162461bcd60e51b81526004016106c990614166565b600080735FbDB2315678afecb367f032d93F642f64180aa36379469a7a87358561200160808b0160608c01613dbe565b61201160a08c0160808d01613dbe565b61202160c08d0160a08e01613dbe565b7f00000000000000000000000000000000000000000000000000000000000000007f00000000000000000000000000000000000000000000000000000000000000006040518863ffffffff1660e01b815260040161208597969594939291906143c1565b60c06040518083038186803b15801561209d57600080fd5b505af41580156120b1573d6000803e3d6000fd5b505050506040513d601f19601f820116820180604052508101906120d59190613c56565b600186018054939750919450925083916000906120f3908490614624565b925050819055508060008082825461210b9190614624565b9091555050835160038401805460009061212f9084906001600160701b03166145b5565b92506101000a8154816001600160701b0302191690836001600160701b03160217905550836020015183600001600301600001600e8282829054906101000a90046001600160701b031661218391906145b5565b82546101009290920a6001600160701b038181021990931691831602179091556040860151600486018054919350916000916121c1918591166145b5565b92506101000a8154816001600160701b0302191690836001600160701b03160217905550836060015183600001600301600101600e8282829054906101000a90046001600160701b031661221591906145b5565b92506101000a8154816001600160701b0302191690836001600160701b0316021790555083600001518360080160008860200160208101906122579190613bba565b6001600160a01b0316815260208101919091526040016000908120805490919061228b9084906001600160701b03166145b5565b92506101000a8154816001600160701b0302191690836001600160701b0316021790555083602001518360080160008860200160208101906122cd9190613bba565b6001600160a01b0316815260208101919091526040016000208054600e90612306908490600160701b90046001600160701b03166145b5565b92506101000a8154816001600160701b0302191690836001600160701b0316021790555083604001518360080160008860400160208101906123489190613bba565b6001600160a01b0316815260208101919091526040016000908120600101805490919061237f9084906001600160701b03166145b5565b92506101000a8154816001600160701b0302191690836001600160701b0316021790555083606001518360080160008860400160208101906123c19190613bba565b6001600160a01b0316815260208101919091526040016000206001018054600e906123fd908490600160701b90046001600160701b03166145b5565b92506101000a8154816001600160701b0302191690836001600160701b031602179055508560600160208101906124349190613dbe565b83546001600160701b039190911690849060009061245c9084906001600160801b0316614602565b92506101000a8154816001600160801b0302191690836001600160801b031602179055508560600160208101906124939190613dbe565b600584018054600f906124b7908490600160781b90046001600160701b03166145b5565b92506101000a8154816001600160701b0302191690836001600160701b031602179055508560800160208101906124ee9190613dbe565b60068401805460009061250b9084906001600160701b031661465b565b92506101000a8154816001600160701b0302191690836001600160701b031602179055508560a00160208101906125429190613dbe565b600684018054600e90612566908490600160701b90046001600160701b031661465b565b92506101000a8154816001600160701b0302191690836001600160701b0316021790555085606001602081019061259d9190613dbe565b6001600160701b031694506125b28286614624565b94506125be8186614624565b94506125f77f0000000000000000000000000000000000000000000000000000000000000000866125f260c08a018a614570565b6135dc565b6005830154600684015460408051600160781b9093046001600160701b0390811684528083166020850152600160701b909204909116908201528635907f1147bcb0e71ebff15e66fd21a23234fe9acc1891f46595062d71501b0cacbdaa9060600160405180910390a26126716060870160408801613bba565b6001600160a01b031661268a6040880160208901613bba565b6001600160a01b0316336001600160a01b03167fc6ae44b99f4b17a71cd3ae5da13dc05e88b22f10c92b25a20336fe8daae231958960000135898988886040516126d8959493929190614442565b60405180910390a450506001600255509092909150565b6040805160608101825260008082526020808301829052828401829052868252600181528382206001600160a01b038716835260090190529190912080548390811061274b57634e487b7160e01b600052603260045260246000fd5b60009182526020918290206040805160608101825291909201546001600160701b038082168352600160701b8204169382019390935263ffffffff600160e01b909304929092169082015290505b9392505050565b6000806002546001146127c55760405162461bcd60e51b81526004016106c990614148565b6002805582354210156128035760405162461bcd60e51b81526004016106c9906020808252600490820152634532303360e01b604082015260600190565b60006128156040850160208601613bba565b6001600160a01b0316141561283c5760405162461bcd60e51b81526004016106c9906141a2565b600061284e6060850160408601613bba565b6001600160a01b031614156128755760405162461bcd60e51b81526004016106c9906141a2565b306128866040850160208601613bba565b6001600160a01b031614156128ad5760405162461bcd60e51b81526004016106c990614184565b306128be6060850160408601613bba565b6001600160a01b031614156128e55760405162461bcd60e51b81526004016106c990614184565b60608301356129065760405162461bcd60e51b81526004016106c99061410c565b8235600090815260016020526040902060028101546129375760405162461bcd60e51b81526004016106c990614166565b60405163029b65e160e41b81526000908190735FbDB2315678afecb367f032d93F642f64180aa3906329b65e109061297990869060608b0135906004016141f9565b60606040518083038186803b15801561299157600080fd5b505af41580156129a5573d6000803e3d6000fd5b505050506040513d601f19601f820116820180604052508101906129c99190613dda565b6002860180549297509294509250606088013591906000906129ec9084906146a3565b90915550503360009081526007840160205260408120805460608901359290612a169084906146a3565b90915550506001600160801b0382169450612a318186614624565b94508415612adb57825482908490600090612a569084906001600160801b0316614683565b92506101000a8154816001600160801b0302191690836001600160801b0316021790555080836000016001016000828254612a9191906146a3565b90915550612adb9050612aaa6040880160208901613bba565b6001600160a01b037f000000000000000000000000000000000000000000000000000000000000000016908761335f565b6001600160801b03841615612b8257825484908490601090612b0e908490600160801b90046001600160801b0316614683565b92506101000a8154816001600160801b0302191690836001600160801b03160217905550612b82866040016020810190612b489190613bba565b6001600160a01b037f000000000000000000000000000000000000000000000000000000000000000016906001600160801b03871661335f565b612b926060870160408801613bba565b6001600160a01b0316612bab6040880160208901613bba565b60408051893581526060808b013560208301529181018990526001600160801b03881691810191909152608081018490526001600160a01b03919091169033907fe29621344001b5bbfbfa920bf7ad2b10cb37ac862596010c0c9e813e65ed344f9060a0016126d8565b600080600254600114612c3a5760405162461bcd60e51b81526004016106c990614148565b6002805582354210612c5e5760405162461bcd60e51b81526004016106c99061412a565b6000612c706060850160408601613bba565b6001600160a01b03161415612c975760405162461bcd60e51b81526004016106c9906141a2565b6000612ca96040850160208601613bba565b6001600160a01b03161415612cd05760405162461bcd60e51b81526004016106c9906141a2565b30612ce16040850160208601613bba565b6001600160a01b03161415612d085760405162461bcd60e51b81526004016106c990614184565b612d156080840184614521565b9050612d246060850185614521565b905014612d435760405162461bcd60e51b81526004016106c99061410c565b612d5060a0840184614521565b9050612d5f6060850185614521565b905014612d7e5760405162461bcd60e51b81526004016106c99061410c565b8235600090815260016020526040808220919060098301908290612da89060608901908901613bba565b6001600160a01b0316815260208101919091526040016000209050612dd06060860186614521565b825410159050612df25760405162461bcd60e51b81526004016106c99061410c565b60005b612e026060870187614521565b905081101561319257600082612e1b6060890189614521565b84818110612e3957634e487b7160e01b600052603260045260246000fd5b9050602002013581548110612e5e57634e487b7160e01b600052603260045260246000fd5b906000526020600020019050612e726136a4565b8154600160e01b900463ffffffff90811691161415612ebc5760405162461bcd60e51b81526004016106c9906020808252600490820152634532303760e01b604082015260600190565b33612ecd6060890160408a01613bba565b6001600160a01b031614612f5a57612ee860a0880188614521565b83818110612f0657634e487b7160e01b600052603260045260246000fd5b9050602002016020810190612f1b9190613dbe565b6001600160701b031615612f5a5760405162461bcd60e51b81526004016106c9906020808252600490820152634532313360e01b604082015260600190565b8054612f78906001600160701b03166001600160801b03871661463c565b8154612f9d90600160701b90046001600160701b03166001600160801b03891661463c565b1015612fd45760405162461bcd60e51b81526004016106c9906020808252600490820152634533303360e01b604082015260600190565b612fe16080880188614521565b83818110612fff57634e487b7160e01b600052603260045260246000fd5b90506020020160208101906130149190613dbe565b8154829060009061302f9084906001600160701b031661465b565b92506101000a8154816001600160701b0302191690836001600160701b03160217905550868060a001906130639190614521565b8381811061308157634e487b7160e01b600052603260045260246000fd5b90506020020160208101906130969190613dbe565b81548290600e906130b8908490600160701b90046001600160701b031661465b565b92506101000a8154816001600160701b0302191690836001600160701b031602179055508680608001906130ec9190614521565b8381811061310a57634e487b7160e01b600052603260045260246000fd5b905060200201602081019061311f9190613dbe565b613132906001600160701b031687614602565b955061314160a0880188614521565b8381811061315f57634e487b7160e01b600052603260045260246000fd5b90506020020160208101906131749190613dbe565b613187906001600160701b031686614602565b945050600101612df5565b508154849083906000906131b09084906001600160801b0316614602565b82546101009290920a6001600160801b03818102199093169183160217909155835485925084916010916131ed918591600160801b900416614683565b92506101000a8154816001600160801b0302191690836001600160801b03160217905550826001600160801b031660001461326f5761326f6132356040870160208801613bba565b6001600160a01b037f000000000000000000000000000000000000000000000000000000000000000016906001600160801b03861661335f565b6001600160801b038416156132b5576132b57f0000000000000000000000000000000000000000000000000000000000000000856132b060c0890189614570565b6136b4565b6132c56060860160408701613bba565b6001600160a01b03166132de6040870160208801613bba565b6001600160a01b0316337f5a01dee47555c7f01c7780ac1365c62953080831de57e9f8c683842a8f05103c883561331860608b018b614521565b61332560808d018d614521565b61333260a08f018f614521565b8e8e60405161334999989796959493929190614289565b60405180910390a4505060016002559092909150565b604080516001600160a01b038416602482015260448082018490528251808303909101815260649091019091526020810180516001600160e01b031663a9059cbb60e01b1790526133b190849061374d565b505050565b60006133ca856001600160a01b031661381f565b6040516390e4d0b160e01b815290915033906390e4d0b1906133f49087908790879060040161423a565b600060405180830381600087803b15801561340e57600080fd5b505af1158015613422573d6000803e3d6000fd5b50505050600061343a866001600160a01b031661381f565b905061344f6001600160701b03861683614624565b8110156134875760405162461bcd60e51b81526004016106c9906020808252600490820152634533303560e01b604082015260600190565b505050505050565b60006134a3876001600160a01b031661381f565b905060006134b9876001600160a01b031661381f565b60405163c317bf6160e01b8152909150339063c317bf61906134e5908990899089908990600401614419565b600060405180830381600087803b1580156134ff57600080fd5b505af1158015613513573d6000803e3d6000fd5b50505050600061352b896001600160a01b031661381f565b90506000613541896001600160a01b031661381f565b905061354d8885614624565b8210156135855760405162461bcd60e51b81526004016106c990602080825260049082015263114ccc0d60e21b604082015260600190565b6135986001600160701b03881684614624565b8110156135d05760405162461bcd60e51b81526004016106c9906020808252600490820152634533303560e01b604082015260600190565b50505050505050505050565b60006135f0856001600160a01b031661381f565b604051631ac6082d60e01b81529091503390631ac6082d9061361a9087908790879060040161431c565b600060405180830381600087803b15801561363457600080fd5b505af1158015613648573d6000803e3d6000fd5b505050506000613660866001600160a01b031661381f565b905061366c8583614624565b8110156134875760405162461bcd60e51b81526004016106c990602080825260049082015263114ccc0d60e21b604082015260600190565b60006136af436138a1565b905090565b60006136c8856001600160a01b031661381f565b60405163c70449bf60e01b8152909150339063c70449bf906136f290879087908790600401614266565b600060405180830381600087803b15801561370c57600080fd5b505af1158015613720573d6000803e3d6000fd5b505050506000613738866001600160a01b031661381f565b905061366c6001600160801b03861683614624565b60006137a2826040518060400160405280602081526020017f5361666545524332303a206c6f772d6c6576656c2063616c6c206661696c6564815250856001600160a01b03166138b29092919063ffffffff16565b8051909150156133b157808060200190518101906137c09190613bf2565b6133b15760405162461bcd60e51b815260206004820152602a60248201527f5361666545524332303a204552433230206f7065726174696f6e20646964206e6044820152691bdd081cdd58d8d9595960b21b60648201526084016106c9565b60408051306024808301919091528251808303909101815260449091018252602080820180516001600160e01b03166370a0823160e01b179052825160608101909352602d808452600093849361388b9390929061474a908301396001600160a01b03861691906138c9565b9050808060200190518101906127999190613e2d565b6000610683640100000000836146e6565b60606138c1848460008561399a565b949350505050565b6060833b6139255760405162461bcd60e51b8152602060048201526024808201527f416464726573733a207374617469632063616c6c20746f206e6f6e2d636f6e746044820152631c9858dd60e21b60648201526084016106c9565b600080856001600160a01b03168560405161394091906140bd565b600060405180830381855afa9150503d806000811461397b576040519150601f19603f3d011682016040523d82523d6000602084013e613980565b606091505b5091509150613990828286613ac2565b9695505050505050565b6060824710156139fb5760405162461bcd60e51b815260206004820152602660248201527f416464726573733a20696e73756666696369656e742062616c616e636520666f6044820152651c8818d85b1b60d21b60648201526084016106c9565b843b613a495760405162461bcd60e51b815260206004820152601d60248201527f416464726573733a2063616c6c20746f206e6f6e2d636f6e747261637400000060448201526064016106c9565b600080866001600160a01b03168587604051613a6591906140bd565b60006040518083038185875af1925050503d8060008114613aa2576040519150601f19603f3d011682016040523d82523d6000602084013e613aa7565b606091505b5091509150613ab7828286613ac2565b979650505050505050565b60608315613ad1575081612799565b825115613ae15782518084602001fd5b8160405162461bcd60e51b81526004016106c991906140d9565b600060e08284031215613b0c578081fd5b50919050565b600060608284031215613b23578081fd5b6040516060810181811067ffffffffffffffff82111715613b5257634e487b7160e01b83526041600452602483fd5b80604052508091508251613b6581614734565b81526020830151613b7581614734565b6020820152604083015163ffffffff81168114613b9157600080fd5b6040919091015292915050565b80516001600160801b0381168114613bb557600080fd5b919050565b600060208284031215613bcb578081fd5b81356127998161471c565b600060208284031215613be7578081fd5b81516127998161471c565b600060208284031215613c03578081fd5b81518015158114612799578182fd5b600060208284031215613c23578081fd5b813567ffffffffffffffff811115613c39578182fd5b6138c184828501613afb565b600060808284031215613b0c578081fd5b600080600083850360c0811215613c6b578283fd5b6080811215613c78578283fd5b506040516080810181811067ffffffffffffffff82111715613ca857634e487b7160e01b84526041600452602484fd5b6040528451613cb681614734565b81526020850151613cc681614734565b60208201526040850151613cd981614734565b60408201526060850151613cec81614734565b6060820152608085015160a09095015190969495509392505050565b600080600060a08486031215613d1c578283fd5b613d268585613b12565b925060608401519150608084015190509250925092565b600060408284031215613d4e578081fd5b6040516040810181811067ffffffffffffffff82111715613d7d57634e487b7160e01b83526041600452602483fd5b604052613d8983613b9e565b8152613d9760208401613b9e565b60208201529392505050565b600060e08284031215613db4578081fd5b6127998383613afb565b600060208284031215613dcf578081fd5b813561279981614734565b600080600060608486031215613dee578081fd5b613df784613b9e565b9250613e0560208501613b9e565b9150604084015190509250925092565b600060208284031215613e26578081fd5b5035919050565b600060208284031215613e3e578081fd5b5051919050565b60008060408385031215613e57578182fd5b823591506020830135613e698161471c565b809150509250929050565b600080600060608486031215613e88578081fd5b833592506020840135613e9a8161471c565b929592945050506040919091013590565b600080600060a08486031215613ebf578081fd5b83519250613ed08560208601613b12565b9150608084015190509250925092565b81835260006020808501945082825b85811015613f1d578135613f0281614734565b6001600160701b031687529582019590820190600101613eef565b509495945050505050565b81835281816020850137506000828201602090810191909152601f909101601f19169091010190565b8035613f5c81614734565b6001600160701b039081168352602082013590613f7882614734565b9081166020840152604082013590613f8f82614734565b9081166040840152606082013590613fa682614734565b808216606085015250505050565b80516001600160701b03908116835260208083015182169084015260408083015182169084015260609182015116910152565b6001600160701b038082511683528060208301511660208401525063ffffffff60408201511660408301525050565b80546001600160801b0381168352608090811c6020840152600182015460408401526002820154606084015260038201546001600160701b0380821692850192909252607090811c821660a0850152600483015480831660c0860152811c821660e085015260058301546001600160781b03811661010086015260781c821661012085015260068301548083166101408601529081901c8216610160850152905b50505050565b600082516140cf8184602087016146ba565b9190910192915050565b60208152600082518060208401526140f88160408501602087016146ba565b601f01601f19169190910160400192915050565b6020808252600490820152634532303560e01b604082015260600190565b6020808252600490820152632299181960e11b604082015260600190565b6020808252600490820152634532313160e01b604082015260600190565b6020808252600490820152632299181b60e11b604082015260600190565b602080825260049082015263114c8c0d60e21b604082015260600190565b6020808252600490820152634532303160e01b604082015260600190565b608081016106838284613fb4565b606081016106838284613fe7565b61020081016141eb8285614016565b612799610180830184613f51565b6101a081016142088285614016565b826101808301529392505050565b60408101610683828480516001600160801b03908116835260209182015116910152565b6001600160701b038416815260406020820152600061425d604083018486613f28565b95945050505050565b6001600160801b038416815260406020820152600061425d604083018486613f28565b89815260c060208201819052810188905260006001600160fb1b038911156142af578081fd5b8860051b808b60e0850137808301905060e0810182815260e08483030160408501526142dc818a8c613ee0565b91505082810360608401526142f2818789613ee0565b9150506001600160801b03808516608084015280841660a0840152509a9950505050505050505050565b83815260406020820152600061425d604083018486613f28565b83815260e0810161434a6020830185613f51565b82516001600160801b0390811660a084015260208401511660c08301526138c1565b82815260a081016127996020830184613fb4565b85815261020081016143956020830187614016565b6001600160701b039485166101a08301529284166101c082015292166101e09092019190915292915050565b87815261024081016143d66020830189614016565b6001600160701b039687166101a08301529486166101c0820152929094166101e083015261ffff9081166102008301529092166102209092019190915292915050565b8481526001600160701b0384166020820152606060408201526000613990606083018486613f28565b85815260208101859052610100810161445e6040830186613fb4565b60c082019390935260e001529392505050565b8381526020810183905260a081016138c16040830184613fe7565b848152602081018490526040810183905260c0810161425d6060830184613fe7565b868152602081018690526040810185905261010081016144d16060830186613fe7565b60c082019390935260e00152949350505050565b6000610100820190508782528660208301528560408301528460608301526145106080830185613fe7565b8260e0830152979650505050505050565b6000808335601e19843603018112614537578283fd5b83018035915067ffffffffffffffff821115614551578283fd5b6020019150600581901b360382131561456957600080fd5b9250929050565b6000808335601e19843603018112614586578283fd5b83018035915067ffffffffffffffff8211156145a0578283fd5b60200191503681900382131561456957600080fd5b60006001600160701b038083168185168083038211156145d7576145d7614706565b01949350505050565b60006001600160781b038083168185168083038211156145d7576145d7614706565b60006001600160801b038083168185168083038211156145d7576145d7614706565b6000821982111561463757614637614706565b500190565b600081600019048311821515161561465657614656614706565b500290565b60006001600160701b038381169083168181101561467b5761467b614706565b039392505050565b60006001600160801b038381169083168181101561467b5761467b614706565b6000828210156146b5576146b5614706565b500390565b60005b838110156146d55781810151838201526020016146bd565b838111156140b75750506000910152565b60008261470157634e487b7160e01b81526012600452602481fd5b500690565b634e487b7160e01b600052601160045260246000fd5b6001600160a01b038116811461473157600080fd5b50565b6001600160701b038116811461473157600080fdfe62616c616e63654f662043616c6c20746f2049455243323020746f6b656e206e6f74207375636365737366756ca26469706673582212206b9e14877c88f7feef8e22059ba0b2de107130accd5abe68b93ec9cfcd350bb464736f6c63430008040033a2646970667358221220c56da70d6016fd87b66451a924059ef14c6f539a2fd80263af5f4ae1f0ccdbb764736f6c63430008040033",
  "deployedBytecode": "0x608060405234801561001057600080fd5b50600436106100885760003560e01c8063ddca3f431161005b578063ddca3f431461011f578063e30c397814610146578063e6a4390514610159578063ebbc49651461018d57600080fd5b806313af40351461008d5780638da5cb5b146100a2578063b0e21e8a146100d2578063c9c653961461010c575b600080fd5b6100a061009b36600461054c565b610195565b005b6000546100b5906001600160a01b031681565b6040516001600160a01b0390911681526020015b60405180910390f35b6100f97f000000000000000000000000000000000000000000000000000000000000000081565b60405161ffff90911681526020016100c9565b6100b561011a36600461056f565b61026a565b6100f97f000000000000000000000000000000000000000000000000000000000000000081565b6001546100b5906001600160a01b031681565b6100b561016736600461056f565b60026020908152600092835260408084209091529082529020546001600160a01b031681565b6100a06104b3565b6000546001600160a01b031633146101e15760405162461bcd60e51b81526004016101d8906020808252600490820152632298981960e11b604082015260600190565b60405180910390fd5b6001600160a01b0381166102205760405162461bcd60e51b81526004016101d8906020808252600490820152634531303160e01b604082015260600190565b600180546001600160a01b0319166001600160a01b0383169081179091556040517f167d3e9c1016ab80e58802ca9da10ce5c6a0f4debc46a2e7a2cd9e56899a4fb590600090a250565b6000816001600160a01b0316836001600160a01b031614156102b75760405162461bcd60e51b81526004016101d8906020808252600490820152634531303360e01b604082015260600190565b6001600160a01b038316158015906102d757506001600160a01b03821615155b61030c5760405162461bcd60e51b81526004016101d8906020808252600490820152634531303160e01b604082015260600190565b6001600160a01b0383811660009081526002602090815260408083208685168452909152902054161561036a5760405162461bcd60e51b81526004016101d890602080825260049082015263114c4c0d60e21b604082015260600190565b604080516001600160a01b0380861660208301528416918101919091526060016040516020818303038152906040528051906020012083837f00000000000000000000000000000000000000000000000000000000000000007f00000000000000000000000000000000000000000000000000000000000000006040516103f09061053f565b6001600160a01b03948516815293909216602084015261ffff90811660408401521660608201526080018190604051809103906000f590508015801561043a573d6000803e3d6000fd5b506001600160a01b0384811660008181526002602090815260408083208886168085529083529281902080546001600160a01b0319169587169586179055519384529394509290917f58e59580cc0153b14c553b340b7d7ae6ab3df9747aa39f82941816c5db3869f2910160405180910390a392915050565b6001546001600160a01b031633146104f65760405162461bcd60e51b81526004016101d8906020808252600490820152632298981960e11b604082015260600190565b60008054336001600160a01b0319918216811783556001805490921690915560405190917f31775a018194f26a792a0203e972faf15303e08a913cdc54497278e48de6690991a2565b614981806105c083390190565b60006020828403121561055d578081fd5b8135610568816105a7565b9392505050565b60008060408385031215610581578081fd5b823561058c816105a7565b9150602083013561059c816105a7565b809150509250929050565b6001600160a01b03811681146105bc57600080fd5b5056fe61012060405260016002553480156200001757600080fd5b5060405162004981380380620049818339810160408190526200003a91620000ae565b33606090811b6080526001600160601b031994811b851660a0529290921b90921660c0526001600160f01b031960f092831b811660e052911b16610100526200010a565b80516001600160a01b03811681146200009657600080fd5b919050565b805161ffff811681146200009657600080fd5b60008060008060808587031215620000c4578384fd5b620000cf856200007e565b9350620000df602086016200007e565b9250620000ef604086016200009b565b9150620000ff606086016200009b565b905092959194509250565b60805160601c60a05160601c60c05160601c60e05160f01c6101005160f01c6147ac620001d56000396000818161037b015281816108b101526120440152600081816106070152818161089001526120230152600081816105e001528181610cb60152818161147201528181611b6001528181612b52015261323f0152600081816101e501528181610c84015281816113bf01528181611b3f01528181611daf015281816125c501528181612ab401526132830152600081816105b90152611cc201526147ac6000f3fe608060405234801561001057600080fd5b506004361061014d5760003560e01c8063aae6fcb4116100c3578063bbc538fb1161007c578063bbc538fb146104f8578063c0eb96e814610584578063c45a0155146105b4578063d8dfeb45146105db578063ddca3f4314610602578063e97b7cc01461062957600080fd5b8063aae6fcb41461031c578063b064fb3f1461033c578063b0e21e8a14610376578063b5e60c3c146103b0578063b77ee839146103d3578063baadc6fe1461048257600080fd5b806360553a091161011557806360553a091461024a5780637272efec1461028e57806381e6f6d1146102b257806393910a68146102c5578063a440fef9146102e8578063a7a7b224146102fb57600080fd5b80630f79fca5146101525780631eb9cd431461017857806338d52e0f146101e057806357a3542e1461021f57806357cb264014610241575b600080fd5b610165610160366004613e45565b61065c565b6040519081526020015b60405180910390f35b6101d3610186366004613e15565b6040805180820190915260008082526020820152506000908152600160209081526040918290208251808401909352546001600160801b038082168452600160801b909104169082015290565b60405161016f9190614216565b6102077f000000000000000000000000000000000000000000000000000000000000000081565b6040516001600160a01b03909116815260200161016f565b61023261022d366004613c12565b610689565b60405161016f93929190614471565b61016560005481565b610276610258366004613e15565b6000908152600160205260409020600501546001600160781b031690565b6040516001600160781b03909116815260200161016f565b61016561029c366004613e15565b6000908152600160208190526040909120015490565b6101d36102c0366004613da3565b610de2565b6102d86102d3366004613c12565b61152c565b60405161016f949392919061448c565b6101656102f6366004613bba565b611c95565b61030e610309366004613c12565b611e20565b60405161016f92919061436c565b61032f61032a366004613e74565b6126ef565b60405161016f91906141ce565b61016561034a366004613e45565b60008281526001602090815260408083206001600160a01b038516845260090190915290205492915050565b61039d7f000000000000000000000000000000000000000000000000000000000000000081565b60405161ffff909116815260200161016f565b6101656103be366004613e15565b60009081526001602052604090206002015490565b6104756103e1366004613e45565b6040805160808101825260008082526020820181905291810182905260608101919091525060008281526001602081815260408084206001600160a01b0386168552600801825292839020835160808101855281546001600160701b038082168352600160701b91829004811694830194909452919093015480831694840194909452909204909116606082015292915050565b60405161016f91906141c0565b6104ce610490366004613e15565b60009081526001602052604090206005810154600690910154600160781b9091046001600160701b039081169281831692600160701b900490911690565b604080516001600160701b039485168152928416602084015292169181019190915260600161016f565b610475610506366004613e15565b60408051608081018252600080825260208201819052918101829052606081019190915250600090815260016020908152604091829020825160808101845260038201546001600160701b038082168352600160701b9182900481169483019490945260049092015480841694820194909452920416606082015290565b610597610592366004613c45565b6127a0565b604080519283526001600160801b0390911660208301520161016f565b6102077f000000000000000000000000000000000000000000000000000000000000000081565b6102077f000000000000000000000000000000000000000000000000000000000000000081565b61039d7f000000000000000000000000000000000000000000000000000000000000000081565b61063c610637366004613c12565b612c15565b604080516001600160801b0393841681529290911660208301520161016f565b60008281526001602090815260408083206001600160a01b03851684526007019091529020545b92915050565b6040805160608101825260008082526020820181905291810182905281906002546001146106d25760405162461bcd60e51b81526004016106c990614148565b60405180910390fd5b60028055833542106106f65760405162461bcd60e51b81526004016106c99061412a565b60006107086040860160208701613bba565b6001600160a01b0316141561072f5760405162461bcd60e51b81526004016106c9906141a2565b60006107416060860160408701613bba565b6001600160a01b031614156107685760405162461bcd60e51b81526004016106c9906141a2565b306107796040860160208701613bba565b6001600160a01b031614156107a05760405162461bcd60e51b81526004016106c990614184565b306107b16060860160408701613bba565b6001600160a01b031614156107d85760405162461bcd60e51b81526004016106c990614184565b6107e86080850160608601613dbe565b6001600160701b031661080d5760405162461bcd60e51b81526004016106c99061410c565b83356000908152600160205260409020600281015461083e5760405162461bcd60e51b81526004016106c990614166565b60008073__$12aa84c77afb1e34eece64d20d70016d15$__6384ab449b88358561086e60808c0160608d01613dbe565b61087e60a08d0160808e01613dbe565b61088e60c08e0160a08f01613dbe565b7f00000000000000000000000000000000000000000000000000000000000000007f00000000000000000000000000000000000000000000000000000000000000006040518863ffffffff1660e01b81526004016108f297969594939291906143c1565b60a06040518083038186803b15801561090a57600080fd5b505af415801561091e573d6000803e3d6000fd5b505050506040513d601f19601f820116820180604052508101906109429190613d08565b60018601805493975091945092508391600090610960908490614624565b92505081905550806000808282546109789190614624565b90915550610a1e90508460098501600061099860608c0160408d01613bba565b6001600160a01b0316815260208101919091526040016000209081546001810183556000928352602092839020825190820180549484015160409094015163ffffffff16600160e01b026001600160e01b036001600160701b03958616600160701b026001600160e01b0319909716959093169490941794909417169190911790915590565b9450610a306080880160608901613dbe565b83546001600160701b0391909116908490600090610a589084906001600160801b0316614683565b92506101000a8154816001600160801b0302191690836001600160801b0316021790555083602001516001600160701b03168360000160000160000160108282829054906101000a90046001600160801b0316610ab59190614602565b82546001600160801b039182166101009390930a92830291909202199091161790555083516005840180546001600160701b0390921691600090610b039084906001600160781b03166145e0565b92506101000a8154816001600160781b0302191690836001600160781b03160217905550866060016020810190610b3a9190613dbe565b600584018054600f90610b5e908490600160781b90046001600160701b031661465b565b92506101000a8154816001600160701b0302191690836001600160701b03160217905550866080016020810190610b959190613dbe565b600684018054600090610bb29084906001600160701b03166145b5565b92506101000a8154816001600160701b0302191690836001600160701b031602179055508660a0016020810190610be99190613dbe565b600684018054600e90610c0d908490600160701b90046001600160701b03166145b5565b92506101000a8154816001600160701b0302191690836001600160701b03160217905550866060016020810190610c449190613dbe565b6001600160701b03169550610c5982876146a3565b9550610c6581876146a3565b9550610cab610c7a6040890160208a01613bba565b6001600160a01b037f000000000000000000000000000000000000000000000000000000000000000016908861335f565b6020840151610ce8907f000000000000000000000000000000000000000000000000000000000000000090610ce360c08b018b614570565b6133b6565b6005830154600684015460408051600160781b9093046001600160701b0390811684528083166020850152600160701b909204909116908201528735907f1147bcb0e71ebff15e66fd21a23234fe9acc1891f46595062d71501b0cacbdaa9060600160405180910390a2610d626060880160408901613bba565b6001600160a01b0316610d7b6040890160208a01613bba565b6001600160a01b0316336001600160a01b03167fc4726516366593076075d3550bf236094106d5d311576a357a1f05967262d0798a600001358a8a8a8989604051610dcb969594939291906144ae565b60405180910390a450506001600255509193909250565b6040805180820190915260008082526020820152600254600114610e185760405162461bcd60e51b81526004016106c990614148565b600280558135421015610e565760405162461bcd60e51b81526004016106c9906020808252600490820152634532303360e01b604082015260600190565b6000610e686040840160208501613bba565b6001600160a01b03161415610e8f5760405162461bcd60e51b81526004016106c9906141a2565b6000610ea16060840160408501613bba565b6001600160a01b03161415610ec85760405162461bcd60e51b81526004016106c9906141a2565b30610ed96040840160208501613bba565b6001600160a01b03161415610f005760405162461bcd60e51b81526004016106c990614184565b30610f116060840160408501613bba565b6001600160a01b03161415610f385760405162461bcd60e51b81526004016106c990614184565b610f486080830160608401613dbe565b6001600160701b0316151580610f755750610f6960a0830160808401613dbe565b6001600160701b031615155b80610f975750610f8b60c0830160a08401613dbe565b6001600160701b031615155b80610fb95750610fad60e0830160c08401613dbe565b6001600160701b031615155b610fd55760405162461bcd60e51b81526004016106c99061410c565b81356000908152600160205260409081902090516317db9b6b60e01b815273__$12aa84c77afb1e34eece64d20d70016d15$__906317db9b6b9061102290849060608801906004016141dc565b604080518083038186803b15801561103957600080fd5b505af415801561104d573d6000803e3d6000fd5b505050506040513d601f19601f820116820180604052508101906110719190613d3d565b91506110836080840160608501613dbe565b6003820180546000906110a09084906001600160701b031661465b565b92506101000a8154816001600160701b0302191690836001600160701b031602179055508260600160200160208101906110da9190613dbe565b600382018054600e906110fe908490600160701b90046001600160701b031661465b565b92506101000a8154816001600160701b0302191690836001600160701b031602179055508260600160400160208101906111389190613dbe565b6004820180546000906111559084906001600160701b031661465b565b92506101000a8154816001600160701b0302191690836001600160701b0316021790555082606001606001602081019061118f9190613dbe565b600482018054600e906111b3908490600160701b90046001600160701b031661465b565b82546001600160701b039182166101009390930a92830291909202199091161790555033600090815260088201602052604090206111f76080850160608601613dbe565b815482906000906112129084906001600160701b031661465b565b92506101000a8154816001600160701b0302191690836001600160701b0316021790555083606001602001602081019061124c9190613dbe565b81548290600e9061126e908490600160701b90046001600160701b031661465b565b92506101000a8154816001600160701b0302191690836001600160701b031602179055508360600160400160208101906112a89190613dbe565b6001820180546000906112c59084906001600160701b031661465b565b92506101000a8154816001600160701b0302191690836001600160701b031602179055508360600160600160208101906112ff9190613dbe565b600182018054600e90611323908490600160701b90046001600160701b031661465b565b92506101000a8154816001600160701b0302191690836001600160701b0316021790555082600001516001600160801b03166000146113ef578251825483906000906113799084906001600160801b0316614683565b92506101000a8154816001600160801b0302191690836001600160801b031602179055506113ef8460200160208101906113b39190613bba565b84516001600160a01b037f00000000000000000000000000000000000000000000000000000000000000001691906001600160801b031661335f565b60208301516001600160801b0316156114a257602083015182548390601090611429908490600160801b90046001600160801b0316614683565b92506101000a8154816001600160801b0302191690836001600160801b031602179055506114a28460400160208101906114639190613bba565b60208501516001600160a01b037f00000000000000000000000000000000000000000000000000000000000000001691906001600160801b031661335f565b6114b26060850160408601613bba565b6001600160a01b03166114cb6040860160208701613bba565b6001600160a01b0316336001600160a01b03167fd3240d81c413bb3991c962b2f29da128e2d22cd3f040b2bfe14f0d2a3d0199a28760000135886060018860405161151893929190614336565b60405180910390a450506001600255919050565b604080516060810182526000808252602082018190529181018290528190819060025460011461156e5760405162461bcd60e51b81526004016106c990614148565b60028055843542106115925760405162461bcd60e51b81526004016106c99061412a565b64010000000042863503106115d25760405162461bcd60e51b81526004016106c99060208082526004908201526308a6460760e31b604082015260600190565b60006115e46040870160208801613bba565b6001600160a01b0316141561160b5760405162461bcd60e51b81526004016106c9906141a2565b600061161d6060870160408801613bba565b6001600160a01b031614156116445760405162461bcd60e51b81526004016106c9906141a2565b306116556040870160208801613bba565b6001600160a01b0316141561167c5760405162461bcd60e51b81526004016106c990614184565b3061168d6060870160408801613bba565b6001600160a01b031614156116b45760405162461bcd60e51b81526004016106c990614184565b6116c46080860160608701613dbe565b6001600160701b03166116e95760405162461bcd60e51b81526004016106c99061410c565b6116f960a0860160808701613dbe565b6001600160701b031661171e5760405162461bcd60e51b81526004016106c99061410c565b61172e60c0860160a08701613dbe565b6001600160701b03166117535760405162461bcd60e51b81526004016106c99061410c565b843560008181526001602052604081209173__$12aa84c77afb1e34eece64d20d70016d15$__906397b37914908461179160808c0160608d01613dbe565b6117a160a08d0160808e01613dbe565b6117b160c08e0160a08f01613dbe565b6040518663ffffffff1660e01b81526004016117d1959493929190614380565b60a06040518083038186803b1580156117e957600080fd5b505af41580156117fd573d6000803e3d6000fd5b505050506040513d601f19601f820116820180604052508101906118219190613eab565b919650935090508461185e5760405162461bcd60e51b81526004016106c9906020808252600490820152632299189960e11b604082015260600190565b848260000160020160008282546118759190614624565b9091555085905060078301600061189260408b0160208c01613bba565b6001600160a01b03166001600160a01b0316815260200190815260200160002060008282546118c19190614624565b90915550506001820180548291906000906118dd908490614624565b909155506118fd90508360098401600061099860608c0160408d01613bba565b935061190f6080880160608901613dbe565b82546001600160701b03919091169083906000906119379084906001600160801b0316614602565b92506101000a8154816001600160801b0302191690836001600160801b0316021790555082602001516001600160701b03168260000160000160000160108282829054906101000a90046001600160801b03166119949190614602565b82546001600160801b039182166101009390930a92830291909202199091161790555082516005830180546001600160701b03909216916000906119e29084906001600160781b03166145e0565b92506101000a8154816001600160781b0302191690836001600160781b03160217905550866060016020810190611a199190613dbe565b600583018054600f90611a3d908490600160781b90046001600160701b03166145b5565b92506101000a8154816001600160701b0302191690836001600160701b03160217905550866080016020810190611a749190613dbe565b600683018054600090611a919084906001600160701b03166145b5565b92506101000a8154816001600160701b0302191690836001600160701b031602179055508660a0016020810190611ac89190613dbe565b600683018054600e90611aec908490600160701b90046001600160701b03166145b5565b92506101000a8154816001600160701b0302191690836001600160701b03160217905550866060016020810190611b239190613dbe565b6001600160701b03169550611b388187614624565b9550611b9a7f00000000000000000000000000000000000000000000000000000000000000007f00000000000000000000000000000000000000000000000000000000000000008886602001518b8060c00190611b959190614570565b61348f565b6005820154600683015460408051600160781b9093046001600160701b0390811684528083166020850152600160701b909204909116908201528735907f1147bcb0e71ebff15e66fd21a23234fe9acc1891f46595062d71501b0cacbdaa9060600160405180910390a2611c146060880160408901613bba565b6001600160a01b0316611c2d6040890160208a01613bba565b6001600160a01b0316336001600160a01b03167f88018ff4a4eb65189878e69e43401baaf50cfe5cdc5d0412a32f646d193b88f68a600001358a8a8a8a89604051611c7d969594939291906144e5565b60405180910390a45050600160025592949193509190565b6000600254600114611cb95760405162461bcd60e51b81526004016106c990614148565b600280819055507f00000000000000000000000000000000000000000000000000000000000000006001600160a01b0316638da5cb5b6040518163ffffffff1660e01b815260040160206040518083038186803b158015611d1957600080fd5b505afa158015611d2d573d6000803e3d6000fd5b505050506040513d601f19601f82011682018060405250810190611d519190613bd6565b6001600160a01b0316336001600160a01b031614611d9a5760405162461bcd60e51b81526004016106c9906020808252600490820152632299189b60e11b604082015260600190565b5060008054908055611dd66001600160a01b037f000000000000000000000000000000000000000000000000000000000000000016838361335f565b6040518181526001600160a01b0383169033907fbea3eebc02d46c3713e32d2ca6ab0ee1698c47e76cd1bd7707794dcea8bf56f19060200160405180910390a36001600255919050565b6040805160808101825260008082526020820181905291810182905260608101829052600254600114611e655760405162461bcd60e51b81526004016106c990614148565b6002805582354210611e895760405162461bcd60e51b81526004016106c99061412a565b6000611e9b6040850160208601613bba565b6001600160a01b03161415611ec25760405162461bcd60e51b81526004016106c9906141a2565b6000611ed46060850160408601613bba565b6001600160a01b03161415611efb5760405162461bcd60e51b81526004016106c9906141a2565b30611f0c6040850160208601613bba565b6001600160a01b03161415611f335760405162461bcd60e51b81526004016106c990614184565b30611f446060850160408601613bba565b6001600160a01b03161415611f6b5760405162461bcd60e51b81526004016106c990614184565b611f7b6080840160608501613dbe565b6001600160701b0316611fa05760405162461bcd60e51b81526004016106c99061410c565b823560009081526001602052604090206002810154611fd15760405162461bcd60e51b81526004016106c990614166565b60008073__$12aa84c77afb1e34eece64d20d70016d15$__6379469a7a87358561200160808b0160608c01613dbe565b61201160a08c0160808d01613dbe565b61202160c08d0160a08e01613dbe565b7f00000000000000000000000000000000000000000000000000000000000000007f00000000000000000000000000000000000000000000000000000000000000006040518863ffffffff1660e01b815260040161208597969594939291906143c1565b60c06040518083038186803b15801561209d57600080fd5b505af41580156120b1573d6000803e3d6000fd5b505050506040513d601f19601f820116820180604052508101906120d59190613c56565b600186018054939750919450925083916000906120f3908490614624565b925050819055508060008082825461210b9190614624565b9091555050835160038401805460009061212f9084906001600160701b03166145b5565b92506101000a8154816001600160701b0302191690836001600160701b03160217905550836020015183600001600301600001600e8282829054906101000a90046001600160701b031661218391906145b5565b82546101009290920a6001600160701b038181021990931691831602179091556040860151600486018054919350916000916121c1918591166145b5565b92506101000a8154816001600160701b0302191690836001600160701b03160217905550836060015183600001600301600101600e8282829054906101000a90046001600160701b031661221591906145b5565b92506101000a8154816001600160701b0302191690836001600160701b0316021790555083600001518360080160008860200160208101906122579190613bba565b6001600160a01b0316815260208101919091526040016000908120805490919061228b9084906001600160701b03166145b5565b92506101000a8154816001600160701b0302191690836001600160701b0316021790555083602001518360080160008860200160208101906122cd9190613bba565b6001600160a01b0316815260208101919091526040016000208054600e90612306908490600160701b90046001600160701b03166145b5565b92506101000a8154816001600160701b0302191690836001600160701b0316021790555083604001518360080160008860400160208101906123489190613bba565b6001600160a01b0316815260208101919091526040016000908120600101805490919061237f9084906001600160701b03166145b5565b92506101000a8154816001600160701b0302191690836001600160701b0316021790555083606001518360080160008860400160208101906123c19190613bba565b6001600160a01b0316815260208101919091526040016000206001018054600e906123fd908490600160701b90046001600160701b03166145b5565b92506101000a8154816001600160701b0302191690836001600160701b031602179055508560600160208101906124349190613dbe565b83546001600160701b039190911690849060009061245c9084906001600160801b0316614602565b92506101000a8154816001600160801b0302191690836001600160801b031602179055508560600160208101906124939190613dbe565b600584018054600f906124b7908490600160781b90046001600160701b03166145b5565b92506101000a8154816001600160701b0302191690836001600160701b031602179055508560800160208101906124ee9190613dbe565b60068401805460009061250b9084906001600160701b031661465b565b92506101000a8154816001600160701b0302191690836001600160701b031602179055508560a00160208101906125429190613dbe565b600684018054600e90612566908490600160701b90046001600160701b031661465b565b92506101000a8154816001600160701b0302191690836001600160701b0316021790555085606001602081019061259d9190613dbe565b6001600160701b031694506125b28286614624565b94506125be8186614624565b94506125f77f0000000000000000000000000000000000000000000000000000000000000000866125f260c08a018a614570565b6135dc565b6005830154600684015460408051600160781b9093046001600160701b0390811684528083166020850152600160701b909204909116908201528635907f1147bcb0e71ebff15e66fd21a23234fe9acc1891f46595062d71501b0cacbdaa9060600160405180910390a26126716060870160408801613bba565b6001600160a01b031661268a6040880160208901613bba565b6001600160a01b0316336001600160a01b03167fc6ae44b99f4b17a71cd3ae5da13dc05e88b22f10c92b25a20336fe8daae231958960000135898988886040516126d8959493929190614442565b60405180910390a450506001600255509092909150565b6040805160608101825260008082526020808301829052828401829052868252600181528382206001600160a01b038716835260090190529190912080548390811061274b57634e487b7160e01b600052603260045260246000fd5b60009182526020918290206040805160608101825291909201546001600160701b038082168352600160701b8204169382019390935263ffffffff600160e01b909304929092169082015290505b9392505050565b6000806002546001146127c55760405162461bcd60e51b81526004016106c990614148565b6002805582354210156128035760405162461bcd60e51b81526004016106c9906020808252600490820152634532303360e01b604082015260600190565b60006128156040850160208601613bba565b6001600160a01b0316141561283c5760405162461bcd60e51b81526004016106c9906141a2565b600061284e6060850160408601613bba565b6001600160a01b031614156128755760405162461bcd60e51b81526004016106c9906141a2565b306128866040850160208601613bba565b6001600160a01b031614156128ad5760405162461bcd60e51b81526004016106c990614184565b306128be6060850160408601613bba565b6001600160a01b031614156128e55760405162461bcd60e51b81526004016106c990614184565b60608301356129065760405162461bcd60e51b81526004016106c99061410c565b8235600090815260016020526040902060028101546129375760405162461bcd60e51b81526004016106c990614166565b60405163029b65e160e41b8152600090819073__$12aa84c77afb1e34eece64d20d70016d15$__906329b65e109061297990869060608b0135906004016141f9565b60606040518083038186803b15801561299157600080fd5b505af41580156129a5573d6000803e3d6000fd5b505050506040513d601f19601f820116820180604052508101906129c99190613dda565b6002860180549297509294509250606088013591906000906129ec9084906146a3565b90915550503360009081526007840160205260408120805460608901359290612a169084906146a3565b90915550506001600160801b0382169450612a318186614624565b94508415612adb57825482908490600090612a569084906001600160801b0316614683565b92506101000a8154816001600160801b0302191690836001600160801b0316021790555080836000016001016000828254612a9191906146a3565b90915550612adb9050612aaa6040880160208901613bba565b6001600160a01b037f000000000000000000000000000000000000000000000000000000000000000016908761335f565b6001600160801b03841615612b8257825484908490601090612b0e908490600160801b90046001600160801b0316614683565b92506101000a8154816001600160801b0302191690836001600160801b03160217905550612b82866040016020810190612b489190613bba565b6001600160a01b037f000000000000000000000000000000000000000000000000000000000000000016906001600160801b03871661335f565b612b926060870160408801613bba565b6001600160a01b0316612bab6040880160208901613bba565b60408051893581526060808b013560208301529181018990526001600160801b03881691810191909152608081018490526001600160a01b03919091169033907fe29621344001b5bbfbfa920bf7ad2b10cb37ac862596010c0c9e813e65ed344f9060a0016126d8565b600080600254600114612c3a5760405162461bcd60e51b81526004016106c990614148565b6002805582354210612c5e5760405162461bcd60e51b81526004016106c99061412a565b6000612c706060850160408601613bba565b6001600160a01b03161415612c975760405162461bcd60e51b81526004016106c9906141a2565b6000612ca96040850160208601613bba565b6001600160a01b03161415612cd05760405162461bcd60e51b81526004016106c9906141a2565b30612ce16040850160208601613bba565b6001600160a01b03161415612d085760405162461bcd60e51b81526004016106c990614184565b612d156080840184614521565b9050612d246060850185614521565b905014612d435760405162461bcd60e51b81526004016106c99061410c565b612d5060a0840184614521565b9050612d5f6060850185614521565b905014612d7e5760405162461bcd60e51b81526004016106c99061410c565b8235600090815260016020526040808220919060098301908290612da89060608901908901613bba565b6001600160a01b0316815260208101919091526040016000209050612dd06060860186614521565b825410159050612df25760405162461bcd60e51b81526004016106c99061410c565b60005b612e026060870187614521565b905081101561319257600082612e1b6060890189614521565b84818110612e3957634e487b7160e01b600052603260045260246000fd5b9050602002013581548110612e5e57634e487b7160e01b600052603260045260246000fd5b906000526020600020019050612e726136a4565b8154600160e01b900463ffffffff90811691161415612ebc5760405162461bcd60e51b81526004016106c9906020808252600490820152634532303760e01b604082015260600190565b33612ecd6060890160408a01613bba565b6001600160a01b031614612f5a57612ee860a0880188614521565b83818110612f0657634e487b7160e01b600052603260045260246000fd5b9050602002016020810190612f1b9190613dbe565b6001600160701b031615612f5a5760405162461bcd60e51b81526004016106c9906020808252600490820152634532313360e01b604082015260600190565b8054612f78906001600160701b03166001600160801b03871661463c565b8154612f9d90600160701b90046001600160701b03166001600160801b03891661463c565b1015612fd45760405162461bcd60e51b81526004016106c9906020808252600490820152634533303360e01b604082015260600190565b612fe16080880188614521565b83818110612fff57634e487b7160e01b600052603260045260246000fd5b90506020020160208101906130149190613dbe565b8154829060009061302f9084906001600160701b031661465b565b92506101000a8154816001600160701b0302191690836001600160701b03160217905550868060a001906130639190614521565b8381811061308157634e487b7160e01b600052603260045260246000fd5b90506020020160208101906130969190613dbe565b81548290600e906130b8908490600160701b90046001600160701b031661465b565b92506101000a8154816001600160701b0302191690836001600160701b031602179055508680608001906130ec9190614521565b8381811061310a57634e487b7160e01b600052603260045260246000fd5b905060200201602081019061311f9190613dbe565b613132906001600160701b031687614602565b955061314160a0880188614521565b8381811061315f57634e487b7160e01b600052603260045260246000fd5b90506020020160208101906131749190613dbe565b613187906001600160701b031686614602565b945050600101612df5565b508154849083906000906131b09084906001600160801b0316614602565b82546101009290920a6001600160801b03818102199093169183160217909155835485925084916010916131ed918591600160801b900416614683565b92506101000a8154816001600160801b0302191690836001600160801b03160217905550826001600160801b031660001461326f5761326f6132356040870160208801613bba565b6001600160a01b037f000000000000000000000000000000000000000000000000000000000000000016906001600160801b03861661335f565b6001600160801b038416156132b5576132b57f0000000000000000000000000000000000000000000000000000000000000000856132b060c0890189614570565b6136b4565b6132c56060860160408701613bba565b6001600160a01b03166132de6040870160208801613bba565b6001600160a01b0316337f5a01dee47555c7f01c7780ac1365c62953080831de57e9f8c683842a8f05103c883561331860608b018b614521565b61332560808d018d614521565b61333260a08f018f614521565b8e8e60405161334999989796959493929190614289565b60405180910390a4505060016002559092909150565b604080516001600160a01b038416602482015260448082018490528251808303909101815260649091019091526020810180516001600160e01b031663a9059cbb60e01b1790526133b190849061374d565b505050565b60006133ca856001600160a01b031661381f565b6040516390e4d0b160e01b815290915033906390e4d0b1906133f49087908790879060040161423a565b600060405180830381600087803b15801561340e57600080fd5b505af1158015613422573d6000803e3d6000fd5b50505050600061343a866001600160a01b031661381f565b905061344f6001600160701b03861683614624565b8110156134875760405162461bcd60e51b81526004016106c9906020808252600490820152634533303560e01b604082015260600190565b505050505050565b60006134a3876001600160a01b031661381f565b905060006134b9876001600160a01b031661381f565b60405163c317bf6160e01b8152909150339063c317bf61906134e5908990899089908990600401614419565b600060405180830381600087803b1580156134ff57600080fd5b505af1158015613513573d6000803e3d6000fd5b50505050600061352b896001600160a01b031661381f565b90506000613541896001600160a01b031661381f565b905061354d8885614624565b8210156135855760405162461bcd60e51b81526004016106c990602080825260049082015263114ccc0d60e21b604082015260600190565b6135986001600160701b03881684614624565b8110156135d05760405162461bcd60e51b81526004016106c9906020808252600490820152634533303560e01b604082015260600190565b50505050505050505050565b60006135f0856001600160a01b031661381f565b604051631ac6082d60e01b81529091503390631ac6082d9061361a9087908790879060040161431c565b600060405180830381600087803b15801561363457600080fd5b505af1158015613648573d6000803e3d6000fd5b505050506000613660866001600160a01b031661381f565b905061366c8583614624565b8110156134875760405162461bcd60e51b81526004016106c990602080825260049082015263114ccc0d60e21b604082015260600190565b60006136af436138a1565b905090565b60006136c8856001600160a01b031661381f565b60405163c70449bf60e01b8152909150339063c70449bf906136f290879087908790600401614266565b600060405180830381600087803b15801561370c57600080fd5b505af1158015613720573d6000803e3d6000fd5b505050506000613738866001600160a01b031661381f565b905061366c6001600160801b03861683614624565b60006137a2826040518060400160405280602081526020017f5361666545524332303a206c6f772d6c6576656c2063616c6c206661696c6564815250856001600160a01b03166138b29092919063ffffffff16565b8051909150156133b157808060200190518101906137c09190613bf2565b6133b15760405162461bcd60e51b815260206004820152602a60248201527f5361666545524332303a204552433230206f7065726174696f6e20646964206e6044820152691bdd081cdd58d8d9595960b21b60648201526084016106c9565b60408051306024808301919091528251808303909101815260449091018252602080820180516001600160e01b03166370a0823160e01b179052825160608101909352602d808452600093849361388b9390929061474a908301396001600160a01b03861691906138c9565b9050808060200190518101906127999190613e2d565b6000610683640100000000836146e6565b60606138c1848460008561399a565b949350505050565b6060833b6139255760405162461bcd60e51b8152602060048201526024808201527f416464726573733a207374617469632063616c6c20746f206e6f6e2d636f6e746044820152631c9858dd60e21b60648201526084016106c9565b600080856001600160a01b03168560405161394091906140bd565b600060405180830381855afa9150503d806000811461397b576040519150601f19603f3d011682016040523d82523d6000602084013e613980565b606091505b5091509150613990828286613ac2565b9695505050505050565b6060824710156139fb5760405162461bcd60e51b815260206004820152602660248201527f416464726573733a20696e73756666696369656e742062616c616e636520666f6044820152651c8818d85b1b60d21b60648201526084016106c9565b843b613a495760405162461bcd60e51b815260206004820152601d60248201527f416464726573733a2063616c6c20746f206e6f6e2d636f6e747261637400000060448201526064016106c9565b600080866001600160a01b03168587604051613a6591906140bd565b60006040518083038185875af1925050503d8060008114613aa2576040519150601f19603f3d011682016040523d82523d6000602084013e613aa7565b606091505b5091509150613ab7828286613ac2565b979650505050505050565b60608315613ad1575081612799565b825115613ae15782518084602001fd5b8160405162461bcd60e51b81526004016106c991906140d9565b600060e08284031215613b0c578081fd5b50919050565b600060608284031215613b23578081fd5b6040516060810181811067ffffffffffffffff82111715613b5257634e487b7160e01b83526041600452602483fd5b80604052508091508251613b6581614734565b81526020830151613b7581614734565b6020820152604083015163ffffffff81168114613b9157600080fd5b6040919091015292915050565b80516001600160801b0381168114613bb557600080fd5b919050565b600060208284031215613bcb578081fd5b81356127998161471c565b600060208284031215613be7578081fd5b81516127998161471c565b600060208284031215613c03578081fd5b81518015158114612799578182fd5b600060208284031215613c23578081fd5b813567ffffffffffffffff811115613c39578182fd5b6138c184828501613afb565b600060808284031215613b0c578081fd5b600080600083850360c0811215613c6b578283fd5b6080811215613c78578283fd5b506040516080810181811067ffffffffffffffff82111715613ca857634e487b7160e01b84526041600452602484fd5b6040528451613cb681614734565b81526020850151613cc681614734565b60208201526040850151613cd981614734565b60408201526060850151613cec81614734565b6060820152608085015160a09095015190969495509392505050565b600080600060a08486031215613d1c578283fd5b613d268585613b12565b925060608401519150608084015190509250925092565b600060408284031215613d4e578081fd5b6040516040810181811067ffffffffffffffff82111715613d7d57634e487b7160e01b83526041600452602483fd5b604052613d8983613b9e565b8152613d9760208401613b9e565b60208201529392505050565b600060e08284031215613db4578081fd5b6127998383613afb565b600060208284031215613dcf578081fd5b813561279981614734565b600080600060608486031215613dee578081fd5b613df784613b9e565b9250613e0560208501613b9e565b9150604084015190509250925092565b600060208284031215613e26578081fd5b5035919050565b600060208284031215613e3e578081fd5b5051919050565b60008060408385031215613e57578182fd5b823591506020830135613e698161471c565b809150509250929050565b600080600060608486031215613e88578081fd5b833592506020840135613e9a8161471c565b929592945050506040919091013590565b600080600060a08486031215613ebf578081fd5b83519250613ed08560208601613b12565b9150608084015190509250925092565b81835260006020808501945082825b85811015613f1d578135613f0281614734565b6001600160701b031687529582019590820190600101613eef565b509495945050505050565b81835281816020850137506000828201602090810191909152601f909101601f19169091010190565b8035613f5c81614734565b6001600160701b039081168352602082013590613f7882614734565b9081166020840152604082013590613f8f82614734565b9081166040840152606082013590613fa682614734565b808216606085015250505050565b80516001600160701b03908116835260208083015182169084015260408083015182169084015260609182015116910152565b6001600160701b038082511683528060208301511660208401525063ffffffff60408201511660408301525050565b80546001600160801b0381168352608090811c6020840152600182015460408401526002820154606084015260038201546001600160701b0380821692850192909252607090811c821660a0850152600483015480831660c0860152811c821660e085015260058301546001600160781b03811661010086015260781c821661012085015260068301548083166101408601529081901c8216610160850152905b50505050565b600082516140cf8184602087016146ba565b9190910192915050565b60208152600082518060208401526140f88160408501602087016146ba565b601f01601f19169190910160400192915050565b6020808252600490820152634532303560e01b604082015260600190565b6020808252600490820152632299181960e11b604082015260600190565b6020808252600490820152634532313160e01b604082015260600190565b6020808252600490820152632299181b60e11b604082015260600190565b602080825260049082015263114c8c0d60e21b604082015260600190565b6020808252600490820152634532303160e01b604082015260600190565b608081016106838284613fb4565b606081016106838284613fe7565b61020081016141eb8285614016565b612799610180830184613f51565b6101a081016142088285614016565b826101808301529392505050565b60408101610683828480516001600160801b03908116835260209182015116910152565b6001600160701b038416815260406020820152600061425d604083018486613f28565b95945050505050565b6001600160801b038416815260406020820152600061425d604083018486613f28565b89815260c060208201819052810188905260006001600160fb1b038911156142af578081fd5b8860051b808b60e0850137808301905060e0810182815260e08483030160408501526142dc818a8c613ee0565b91505082810360608401526142f2818789613ee0565b9150506001600160801b03808516608084015280841660a0840152509a9950505050505050505050565b83815260406020820152600061425d604083018486613f28565b83815260e0810161434a6020830185613f51565b82516001600160801b0390811660a084015260208401511660c08301526138c1565b82815260a081016127996020830184613fb4565b85815261020081016143956020830187614016565b6001600160701b039485166101a08301529284166101c082015292166101e09092019190915292915050565b87815261024081016143d66020830189614016565b6001600160701b039687166101a08301529486166101c0820152929094166101e083015261ffff9081166102008301529092166102209092019190915292915050565b8481526001600160701b0384166020820152606060408201526000613990606083018486613f28565b85815260208101859052610100810161445e6040830186613fb4565b60c082019390935260e001529392505050565b8381526020810183905260a081016138c16040830184613fe7565b848152602081018490526040810183905260c0810161425d6060830184613fe7565b868152602081018690526040810185905261010081016144d16060830186613fe7565b60c082019390935260e00152949350505050565b6000610100820190508782528660208301528560408301528460608301526145106080830185613fe7565b8260e0830152979650505050505050565b6000808335601e19843603018112614537578283fd5b83018035915067ffffffffffffffff821115614551578283fd5b6020019150600581901b360382131561456957600080fd5b9250929050565b6000808335601e19843603018112614586578283fd5b83018035915067ffffffffffffffff8211156145a0578283fd5b60200191503681900382131561456957600080fd5b60006001600160701b038083168185168083038211156145d7576145d7614706565b01949350505050565b60006001600160781b038083168185168083038211156145d7576145d7614706565b60006001600160801b038083168185168083038211156145d7576145d7614706565b6000821982111561463757614637614706565b500190565b600081600019048311821515161561465657614656614706565b500290565b60006001600160701b038381169083168181101561467b5761467b614706565b039392505050565b60006001600160801b038381169083168181101561467b5761467b614706565b6000828210156146b5576146b5614706565b500390565b60005b838110156146d55781810151838201526020016146bd565b838111156140b75750506000910152565b60008261470157634e487b7160e01b81526012600452602481fd5b500690565b634e487b7160e01b600052601160045260246000fd5b6001600160a01b038116811461473157600080fd5b50565b6001600160701b038116811461473157600080fdfe62616c616e63654f662043616c6c20746f2049455243323020746f6b656e206e6f74207375636365737366756ca26469706673582212206b9e14877c88f7feef8e22059ba0b2de107130accd5abe68b93ec9cfcd350bb464736f6c63430008040033a2646970667358221220c56da70d6016fd87b66451a924059ef14c6f539a2fd80263af5f4ae1f0ccdbb764736f6c63430008040033",
  "libraries": {
    "TimeswapMath": "0x5FbDB2315678afecb367f032d93F642f64180aa3"
  },
  "devdoc": {
    "author": "Timeswap Labs",
    "kind": "dev",
    "methods": {
      "acceptOwner()": {
        "details": "Set the pending owner as the owner of the factory.Reset the pending owner to zero.Can only be called by the pending owner."
      },
      "constructor": {
        "params": {
          "_fee": "The chosen fee rate.",
          "_owner": "The chosen owner address.",
          "_protocolFee": "The chosen protocol fee rate."
        }
      },
      "createPair(address,address)": {
        "details": "Creates a Timeswap Pool based on ERC20 pair parameters.Cannot create a Timeswap Pool with the same pair parameters.",
        "params": {
          "asset": "The address of the ERC20 being lent and borrowed.",
          "collateral": "The address of the ERC20 as the collateral."
        },
        "returns": {
          "pair": "The address of the Timeswap Pair contract."
        }
      },
      "setOwner(address)": {
        "details": "Set the pending owner of the factory.Can only be called by the current owner.",
        "params": {
          "_pendingOwner": "the chosen pending owner."
        }
      }
    },
    "stateVariables": {
      "fee": {
        "details": "Return the fee per second earned by liquidity providers.",
        "return": "The fee following UQ0.40 format.",
        "returns": {
          "_0": "The fee following UQ0.40 format."
        }
      },
      "getPair": {
        "details": "Returns the address of a deployed pair.",
        "params": {
          "asset": "The address of the ERC20 being lent and borrowed.",
          "collateral": "The address of the ERC20 used as collateral."
        },
        "return": "pair The address of the Timeswap Pair contract.",
        "returns": {
          "_0": "pair The address of the Timeswap Pair contract."
        }
      },
      "owner": {
        "details": "Return the address that receives the protocol fee.",
        "return": "The address of the owner.",
        "returns": {
          "_0": "The address of the owner."
        }
      },
      "pendingOwner": {
        "details": "Return the new pending address to replace the owner.",
        "return": "The address of the pending owner.",
        "returns": {
          "_0": "The address of the pending owner."
        }
      },
      "protocolFee": {
        "details": "Return the protocol fee per second earned by the owner.",
        "return": "The protocol fee per second following UQ0.40 format.",
        "returns": {
          "_0": "The protocol fee per second following UQ0.40 format."
        }
      }
    },
    "title": "Timeswap Factory",
    "version": 1
  },
  "userdoc": {
    "kind": "user",
    "methods": {},
    "notice": "It is recommended to use Timeswap Convenience to interact with this contract.All error messages are coded and can be found in the documentation.",
    "version": 1
  },
  "storageLayout": {
    "storage": [
      {
        "astId": 1208,
        "contract": "contracts/TimeswapFactory.sol:TimeswapFactory",
        "label": "owner",
        "offset": 0,
        "slot": "0",
        "type": "t_address"
      },
      {
        "astId": 1212,
        "contract": "contracts/TimeswapFactory.sol:TimeswapFactory",
        "label": "pendingOwner",
        "offset": 0,
        "slot": "1",
        "type": "t_address"
      },
      {
        "astId": 1231,
        "contract": "contracts/TimeswapFactory.sol:TimeswapFactory",
        "label": "getPair",
        "offset": 0,
        "slot": "2",
        "type": "t_mapping(t_contract(IERC20)623,t_mapping(t_contract(IERC20)623,t_contract(IPair)4002))"
      }
    ],
    "types": {
      "t_address": {
        "encoding": "inplace",
        "label": "address",
        "numberOfBytes": "20"
      },
      "t_contract(IERC20)623": {
        "encoding": "inplace",
        "label": "contract IERC20",
        "numberOfBytes": "20"
      },
      "t_contract(IPair)4002": {
        "encoding": "inplace",
        "label": "contract IPair",
        "numberOfBytes": "20"
      },
      "t_mapping(t_contract(IERC20)623,t_contract(IPair)4002)": {
        "encoding": "mapping",
        "key": "t_contract(IERC20)623",
        "label": "mapping(contract IERC20 => contract IPair)",
        "numberOfBytes": "32",
        "value": "t_contract(IPair)4002"
      },
      "t_mapping(t_contract(IERC20)623,t_mapping(t_contract(IERC20)623,t_contract(IPair)4002))": {
        "encoding": "mapping",
        "key": "t_contract(IERC20)623",
        "label": "mapping(contract IERC20 => mapping(contract IERC20 => contract IPair))",
        "numberOfBytes": "32",
        "value": "t_mapping(t_contract(IERC20)623,t_contract(IPair)4002)"
      }
    }
  }
}