{
  "address": "0x5FbDB2315678afecb367f032d93F642f64180aa3",
  "abi": [
    {
      "inputs": [
        {
          "internalType": "address",
          "name": "_owner",
          "type": "address"
        },
        {
          "internalType": "uint16",
          "name": "_fee",
          "type": "uint16"
        },
        {
          "internalType": "uint16",
          "name": "_protocolFee",
          "type": "uint16"
        }
      ],
      "stateMutability": "nonpayable",
      "type": "constructor"
    },
    {
      "anonymous": false,
      "inputs": [
        {
          "indexed": true,
          "internalType": "address",
          "name": "owner",
          "type": "address"
        }
      ],
      "name": "AcceptOwner",
      "type": "event"
    },
    {
      "anonymous": false,
      "inputs": [
        {
          "indexed": true,
          "internalType": "contract IERC20",
          "name": "asset",
          "type": "address"
        },
        {
          "indexed": true,
          "internalType": "contract IERC20",
          "name": "collateral",
          "type": "address"
        },
        {
          "indexed": false,
          "internalType": "contract IPair",
          "name": "pair",
          "type": "address"
        }
      ],
      "name": "CreatePair",
      "type": "event"
    },
    {
      "anonymous": false,
      "inputs": [
        {
          "indexed": true,
          "internalType": "address",
          "name": "pendingOwner",
          "type": "address"
        }
      ],
      "name": "SetOwner",
      "type": "event"
    },
    {
      "inputs": [],
      "name": "acceptOwner",
      "outputs": [],
      "stateMutability": "nonpayable",
      "type": "function"
    },
    {
      "inputs": [
        {
          "internalType": "contract IERC20",
          "name": "asset",
          "type": "address"
        },
        {
          "internalType": "contract IERC20",
          "name": "collateral",
          "type": "address"
        }
      ],
      "name": "createPair",
      "outputs": [
        {
          "internalType": "contract IPair",
          "name": "pair",
          "type": "address"
        }
      ],
      "stateMutability": "nonpayable",
      "type": "function"
    },
    {
      "inputs": [],
      "name": "fee",
      "outputs": [
        {
          "internalType": "uint16",
          "name": "",
          "type": "uint16"
        }
      ],
      "stateMutability": "view",
      "type": "function"
    },
    {
      "inputs": [
        {
          "internalType": "contract IERC20",
          "name": "",
          "type": "address"
        },
        {
          "internalType": "contract IERC20",
          "name": "",
          "type": "address"
        }
      ],
      "name": "getPair",
      "outputs": [
        {
          "internalType": "contract IPair",
          "name": "",
          "type": "address"
        }
      ],
      "stateMutability": "view",
      "type": "function"
    },
    {
      "inputs": [],
      "name": "owner",
      "outputs": [
        {
          "internalType": "address",
          "name": "",
          "type": "address"
        }
      ],
      "stateMutability": "view",
      "type": "function"
    },
    {
      "inputs": [],
      "name": "pendingOwner",
      "outputs": [
        {
          "internalType": "address",
          "name": "",
          "type": "address"
        }
      ],
      "stateMutability": "view",
      "type": "function"
    },
    {
      "inputs": [],
      "name": "protocolFee",
      "outputs": [
        {
          "internalType": "uint16",
          "name": "",
          "type": "uint16"
        }
      ],
      "stateMutability": "view",
      "type": "function"
    },
    {
      "inputs": [
        {
          "internalType": "address",
          "name": "_pendingOwner",
          "type": "address"
        }
      ],
      "name": "setOwner",
      "outputs": [],
      "stateMutability": "nonpayable",
      "type": "function"
    }
  ],
  "transactionHash": "0xe9885a357fc15a3cb64ac387ff1c0b5712d952b8e4a1fb8cf173c58b219ac3cd",
  "args": [
    "0xf39Fd6e51aad88F6F4ce6aB8827279cffFb92266",
    30,
    30
  ],
  "solcInputHash": "996e9fb47057e345881fbf8522b8c2f8",
  "bytecode": "0x60c060405234801561001057600080fd5b506040516157cf3803806157cf83398101604081905261002f916100b6565b6001600160a01b03831661005e5760405162461bcd60e51b815260040161005590610105565b60405180910390fd5b600080546001600160a01b039094166001600160a01b0319909416939093179092556001600160f01b031960f091821b811660805291901b1660a052610123565b805161ffff811681146100b157600080fd5b919050565b6000806000606084860312156100ca578283fd5b83516001600160a01b03811681146100e0578384fd5b92506100ee6020850161009f565b91506100fc6040850161009f565b90509250925092565b6020808252600490820152635a65726f60e01b604082015260600190565b60805160f01c60a05160f01c61567361015c600039600081816101c701526102ec0152600081816102cb01526103c601526156736000f3fe608060405234801561001057600080fd5b50600436106100885760003560e01c8063ddca3f431161005b578063ddca3f43146100e8578063e30c3978146100f0578063e6a43905146100f8578063ebbc49651461010b57610088565b806313af40351461008d5780638da5cb5b146100a2578063b0e21e8a146100c0578063c9c65396146100d5575b600080fd5b6100a061009b366004610492565b610113565b005b6100aa6101b6565b6040516100b791906104ed565b60405180910390f35b6100c86101c5565b6040516100b791906105cd565b6100aa6100e33660046104b5565b6101e9565b6100c86103c4565b6100aa6103e8565b6100aa6101063660046104b5565b6103f7565b6100a061041d565b6000546001600160a01b031633146101465760405162461bcd60e51b815260040161013d906105aa565b60405180910390fd5b6001600160a01b03811661016c5760405162461bcd60e51b815260040161013d9061058c565b600180546001600160a01b0319166001600160a01b0383169081179091556040517f167d3e9c1016ab80e58802ca9da10ce5c6a0f4debc46a2e7a2cd9e56899a4fb590600090a250565b6000546001600160a01b031681565b7f000000000000000000000000000000000000000000000000000000000000000081565b6000816001600160a01b0316836001600160a01b0316141561021d5760405162461bcd60e51b815260040161013d90610569565b6001600160a01b0383161580159061023d57506001600160a01b03821615155b6102595760405162461bcd60e51b815260040161013d9061058c565b6001600160a01b0383811660009081526002602090815260408083208685168452909152902054161561029e5760405162461bcd60e51b815260040161013d9061054a565b82826040516020016102b1929190610501565b6040516020818303038152906040528051906020012083837f00000000000000000000000000000000000000000000000000000000000000007f000000000000000000000000000000000000000000000000000000000000000060405161031790610485565b610324949392919061051b565b8190604051809103906000f5905080158015610344573d6000803e3d6000fd5b506001600160a01b03848116600081815260026020908152604080832088861680855292529182902080546001600160a01b031916948616949094179093555192935090917f58e59580cc0153b14c553b340b7d7ae6ab3df9747aa39f82941816c5db3869f2906103b69085906104ed565b60405180910390a392915050565b7f000000000000000000000000000000000000000000000000000000000000000081565b6001546001600160a01b031681565b60026020908152600092835260408084209091529082529020546001600160a01b031681565b6001546001600160a01b031633146104475760405162461bcd60e51b815260040161013d906105aa565b600080546001600160a01b03191633908117825560405190917f31775a018194f26a792a0203e972faf15303e08a913cdc54497278e48de6690991a2565b615049806105f583390190565b6000602082840312156104a3578081fd5b81356104ae816105dc565b9392505050565b600080604083850312156104c7578081fd5b82356104d2816105dc565b915060208301356104e2816105dc565b809150509250929050565b6001600160a01b0391909116815260200190565b6001600160a01b0392831681529116602082015260400190565b6001600160a01b03948516815292909316602083015261ffff9081166040830152909116606082015260800190565b602080825260059082015264115e1a5cdd60da1b604082015260600190565b6020808252600990820152681259195b9d1a58d85b60ba1b604082015260600190565b6020808252600490820152635a65726f60e01b604082015260600190565b6020808252600990820152682337b93134b23232b760b91b604082015260600190565b61ffff91909116815260200190565b6001600160a01b03811681146105f157600080fd5b5056fe6101206040523480156200001257600080fd5b5060405162005049380380620050498339810160408190526200003591620000a9565b33606090811b6080526001600160601b031994811b851660a0529290921b90921660c0526001600160f01b031960f092831b811660e052911b166101005262000105565b80516001600160a01b03811681146200009157600080fd5b919050565b805161ffff811681146200009157600080fd5b60008060008060808587031215620000bf578384fd5b620000ca8562000079565b9350620000da6020860162000079565b9250620000ea6040860162000096565b9150620000fa6060860162000096565b905092959194509250565b60805160601c60a05160601c60c05160601c60e05160f01c6101005160f01c614e79620001d060003960008181610a5701528181610c360152611820015260008181611a4d015281816122ba015261275c0152600081816107b501528181610e1001528181611779015281816120310152818161240b0152612b3d01526000818161075e015281816108bd01528181610dee015281816116b501528181611b4c015281816126450152612ae6015260008181610aac01528181610c8b015261200d0152614e796000f3fe608060405234801561001057600080fd5b50600436106101215760003560e01c8063b3466a68116100ad578063c45a015511610071578063c45a01551461029d578063d8dfeb45146102a5578063dccda5b8146102ad578063ddca3f43146102ce578063ebdc8e73146102d657610121565b8063b3466a681461022f578063b5e60c3c14610242578063b77ee83914610255578063baadc6fe14610268578063bbc538fb1461028a57610121565b806360553a09116100f457806360553a09146101975780636761f92c146101b757806375581563146101d95780639ee33ef2146101f9578063b0e21e8a1461021a57610121565b80630967ba45146101265780630f79fca51461014f5780631eb9cd431461016f57806338d52e0f14610182575b600080fd5b610139610134366004614305565b6102e9565b60405161014691906148a7565b60405180910390f35b61016261015d3660046141fd565b61084e565b60405161014691906149f6565b61013961017d3660046141cd565b610879565b61018a6108bb565b6040516101469190614571565b6101aa6101a53660046141cd565b6108df565b6040516101469190614996565b6101ca6101c5366004614385565b6108fd565b60405161014693929190614b19565b6101ec6101e73660046141fd565b6110eb565b604051610146919061459e565b61020c61020736600461422c565b611190565b6040516101469291906149cd565b61022261181e565b60405161014691906149e7565b61013961023d366004614385565b611842565b6101626102503660046141cd565b611e9a565b6101396102633660046141fd565b611eaf565b61027b6102763660046141cd565b611f05565b60405161014693929190614973565b6101396102983660046141cd565b611fc9565b61018a61200b565b61018a61202f565b6102c06102bb366004614385565b612053565b604051610146929190614ab1565b61022261275a565b6101396102e4366004614413565b61277e565b6102f161400d565b6001541561031a5760405162461bcd60e51b81526004016103119061463f565b60405180910390fd5b600180554285111561033e5760405162461bcd60e51b815260040161031190614866565b6001600160a01b0384161580159061035e57506001600160a01b03831615155b61037a5760405162461bcd60e51b815260040161031190614621565b6001600160a01b038416301480159061039c57506001600160a01b0383163014155b6103b85760405162461bcd60e51b815260040161031190614750565b81516001600160801b03161515806103dd5750600082602001516001600160801b0316115b6103f95760405162461bcd60e51b815260040161031190614750565b6000858152602081815260409182902082516101208101845281546001600160801b0380821660e08401908152600160801b928390048216610100850152835260018401548386015285518087018752600285015480831682529290920416938101939093529283019190915260038101546001600160781b03811660608401526001600160701b03600160781b90910481166080840152600482015480821660a0850152600160701b90041660c0830152835190916104b891612bd5565b6001600160801b0390811683526040805161012081018252835480841660e08301908152600160801b91829004851661010084015282526001850154602080840191909152835180850185526002870154808716825292909204909416818501529181019190915260038301546001600160781b03811660608301526001600160701b03600160781b90910481166080830152600484015480821660a0840152600160701b90041660c0820152908401516105739190612c41565b6001600160801b03908116602084015283516002830180549192909160009161059e91859116614ce9565b92506101000a8154816001600160801b0302191690836001600160801b0316021790555082602001518160000160020160000160108282829054906101000a90046001600160801b03166105f29190614ce9565b82546101009290920a6001600160801b038181021990931691831602179091553360009081526006840160205260408120865181549194509284929161063a91859116614ce9565b92506101000a8154816001600160801b0302191690836001600160801b0316021790555083602001518160000160108282829054906101000a90046001600160801b03166106889190614ce9565b82546101009290920a6001600160801b038181021990931691831602179091558451845490925084916000916106c091859116614ce9565b92506101000a8154816001600160801b0302191690836001600160801b0316021790555082602001518260000160000160000160108282829054906101000a90046001600160801b03166107149190614ce9565b92506101000a8154816001600160801b0302191690836001600160801b03160217905550600083600001516001600160801b0316111561078f57825161078f906001600160a01b037f0000000000000000000000000000000000000000000000000000000000000000169088906001600160801b0316612d07565b60208301516001600160801b0316156107e65760208301516107e6906001600160a01b037f0000000000000000000000000000000000000000000000000000000000000000169087906001600160801b0316612d07565b846001600160a01b0316866001600160a01b0316336001600160a01b03167fb1781228918ad6271826e772c0a688b2c4f86fe3258aa373c06a49cc49a4215a8a888860405161083793929190614a90565b60405180910390a450506000600155949350505050565b6000828152602081815260408083206001600160a01b03851684526005019091529020545b92915050565b61088161400d565b50600081815260208181526040918290208251808401909352546001600160801b038082168452600160801b90910416908201525b919050565b7f000000000000000000000000000000000000000000000000000000000000000081565b6000908152602081905260409020600301546001600160781b031690565b600080610908614024565b600154156109285760405162461bcd60e51b81526004016103119061463f565b60018055428b1161094b5760405162461bcd60e51b815260040161031190614886565b6001600160a01b038a161580159061096b57506001600160a01b03891615155b6109875760405162461bcd60e51b815260040161031190614621565b6001600160a01b038a1630148015906109a957506001600160a01b0389163014155b6109c55760405162461bcd60e51b815260040161031190614750565b6000886001600160701b0316116109ee5760405162461bcd60e51b815260040161031190614750565b6000876001600160701b0316118015610a1057506000866001600160701b0316115b610a2c5760405162461bcd60e51b815260040161031190614750565b60008b81526020819052604090206001810154610b76576000610a4e8a612d20565b9050610a7b8d827f0000000000000000000000000000000000000000000000000000000000000000612d3d565b945080826000016001016000828254610a949190614c47565b90915550610aa490508582614d25565b8260050160007f00000000000000000000000000000000000000000000000000000000000000006001600160a01b0316638da5cb5b6040518163ffffffff1660e01b815260040160206040518083038186803b158015610b0357600080fd5b505afa158015610b17573d6000803e3d6000fd5b505050506040513d601f19601f82011682018060405250810190610b3b9190614191565b6001600160a01b03166001600160a01b031681526020019081526020016000206000828254610b6a9190614c47565b90915550610d50915050565b604080516101208101825282546001600160801b0380821660e08401908152600160801b92839004821661010085015283526001850154602080850191909152845180860186526002870154808416825293909304909116908201529181019190915260038201546001600160781b03811660608301526001600160701b03600160781b90910481166080830152600483015480821660a0840152600160701b90041660c0820152600090610c2d908b8b8b612d7f565b9050610c5a8d827f0000000000000000000000000000000000000000000000000000000000000000612d3d565b945080826000016001016000828254610c739190614c47565b90915550610c8390508582614d25565b8260050160007f00000000000000000000000000000000000000000000000000000000000000006001600160a01b0316638da5cb5b6040518163ffffffff1660e01b815260040160206040518083038186803b158015610ce257600080fd5b505afa158015610cf6573d6000803e3d6000fd5b505050506040513d601f19601f82011682018060405250810190610d1a9190614191565b6001600160a01b03166001600160a01b031681526020019081526020016000206000828254610d499190614c47565b9091555050505b60008411610d705760405162461bcd60e51b815260040161031190614750565b6001600160a01b038b16600090815260058201602052604081208054869290610d9a908490614c47565b90915550610dab90508c8a8a612df8565b6001600160701b03168252610dc28c8a8a8a612e47565b6001600160701b03166020830152610dd8612ed1565b63ffffffff1660408301526020820151610e39907f0000000000000000000000000000000000000000000000000000000000000000907f0000000000000000000000000000000000000000000000000000000000000000908c908a8a612ee1565b6001600160a01b038a1660009081526007820160205260409020610e5d9083613005565b81549093506001600160701b038a16908290600090610e869084906001600160801b0316614c07565b92506101000a8154816001600160801b0302191690836001600160801b0316021790555081602001516001600160701b03168160000160000160000160108282829054906101000a90046001600160801b0316610ee39190614c07565b82546001600160801b039182166101009390930a92830291909202199091161790555081516003820180546001600160701b0390921691600090610f319084906001600160781b0316614be5565b92506101000a8154816001600160781b0302191690836001600160781b031602179055508881600001600301600f8282829054906101000a90046001600160701b0316610f7e9190614bba565b92506101000a8154816001600160701b0302191690836001600160701b03160217905550878160000160040160008282829054906101000a90046001600160701b0316610fcb9190614bba565b92506101000a8154816001600160701b0302191690836001600160701b031602179055508681600001600401600e8282829054906101000a90046001600160701b03166110189190614bba565b92506101000a8154816001600160701b0302191690836001600160701b031602179055508b7f7011310da283c9f4aa8c425e1551efb8e810af6b3bde6b665391b42c2c74e7d38260000160405161106f91906148b5565b60405180910390a2896001600160a01b03168b6001600160a01b0316336001600160a01b03167f9c05d261a45407efeed5f9c9a8beeebc34bb15e93578bdeb7caf5a808b5488028f8d8989896040516110cc959493929190614ae8565b60405180910390a4506000600181905550985098509895505050505050565b6000828152602081815260408083206001600160a01b03851684526007018252808320805482518185028101850190935280835260609492939192909184015b8282101561118457600084815260209081902060408051606081018252918501546001600160701b038082168452600160701b82041683850152600160e01b900463ffffffff169082015282526001909201910161112b565b50505050905092915050565b6000806001546000146111b55760405162461bcd60e51b81526004016103119061463f565b60018055428a116111d85760405162461bcd60e51b815260040161031190614886565b85518751146111f95760405162461bcd60e51b815260040161031190614750565b845187511461121a5760405162461bcd60e51b815260040161031190614750565b6001600160a01b0389166112405760405162461bcd60e51b815260040161031190614621565b6001600160a01b0389163014156112695760405162461bcd60e51b815260040161031190614750565b60008a8152602081815260408083206001600160a01b038c16845260078101909252822090915b89518110156116a0576112c66040518060400160405280600c81526020016b3a3434b99034b9903434ba1b60a11b815250613090565b6112f68a82815181106112e957634e487b7160e01b600052603260045260246000fd5b60200260200101516130d6565b6113256040518060400160405280600e81526020016d7468697320697320686974362b3160901b815250613090565b6000828b838151811061134857634e487b7160e01b600052603260045260246000fd5b60200260200101518154811061136e57634e487b7160e01b600052603260045260246000fd5b9060005260206000200190506113a76040518060400160405280600c81526020016b74686973206973206869743760a01b815250613090565b6113af612ed1565b8154600160e01b900463ffffffff908116911614156113e05760405162461bcd60e51b815260040161031190614750565b61140d6040518060400160405280600c81526020016b0e8d0d2e640d2e640d0d2e8760a31b815250613090565b6001600160a01b038c16331461146d5788828151811061143d57634e487b7160e01b600052603260045260246000fd5b60200260200101516001600160701b031660001461146d5760405162461bcd60e51b8152600401610311906147a8565b61149e6040518060400160405280601081526020016f7765206861766520686974207468697360801b815250613090565b6115358a83815181106114c157634e487b7160e01b600052603260045260246000fd5b60200260200101518a84815181106114e957634e487b7160e01b600052603260045260246000fd5b6020908102919091018101516040805160608101825286546001600160701b038082168352600160701b82041694820194909452600160e01b90930463ffffffff169083015290613119565b89828151811061155557634e487b7160e01b600052603260045260246000fd5b60209081029190910101518154829060009061157b9084906001600160701b0316614cc1565b92506101000a8154816001600160701b0302191690836001600160701b031602179055508882815181106115bf57634e487b7160e01b600052603260045260246000fd5b602002602001015181600001600e8282829054906101000a90046001600160701b03166115ec9190614cc1565b92506101000a8154816001600160701b0302191690836001600160701b0316021790555089828151811061163057634e487b7160e01b600052603260045260246000fd5b60200260200101516001600160701b03168661164c9190614c07565b955088828151811061166e57634e487b7160e01b600052603260045260246000fd5b60200260200101516001600160701b03168561168a9190614c07565b945050808061169890614d6c565b915050611290565b506001600160801b038416156116dc576116dc7f0000000000000000000000000000000000000000000000000000000000000000858888613250565b8154849083906000906116f99084906001600160801b0316614c07565b82546101009290920a6001600160801b0381810219909316918316021790915583548592508491601091611736918591600160801b900416614ce9565b92506101000a8154816001600160801b0302191690836001600160801b031602179055506000836001600160801b031611156117a9576117a96001600160a01b037f0000000000000000000000000000000000000000000000000000000000000000168c6001600160801b038616612d07565b896001600160a01b03168b6001600160a01b0316336001600160a01b03167f5a01dee47555c7f01c7780ac1365c62953080831de57e9f8c683842a8f05103c8f8d8d8d8b8b604051611800969594939291906149ff565b60405180910390a45050600060015590999098509650505050505050565b7f000000000000000000000000000000000000000000000000000000000000000081565b61184a61400d565b6001541561186a5760405162461bcd60e51b81526004016103119061463f565b6001805542891161188d5760405162461bcd60e51b815260040161031190614886565b6001600160a01b038816158015906118ad57506001600160a01b03871615155b6118c95760405162461bcd60e51b815260040161031190614621565b6001600160a01b03881630148015906118eb57506001600160a01b0387163014155b6119075760405162461bcd60e51b815260040161031190614750565b6000866001600160701b0316116119305760405162461bcd60e51b815260040161031190614750565b6000856001600160701b0316118061195157506000846001600160701b0316115b61196d5760405162461bcd60e51b815260040161031190614750565b6000898152602081905260409020600181015461199c5760405162461bcd60e51b815260040161031190614750565b604080516101208101825282546001600160801b0380821660e08401908152600160801b92839004821661010085015283526001850154602080850191909152845180860186526002870154808416825293909304909116908201529181019190915260038201546001600160781b03811660608301526001600160701b03600160781b90910481166080830152600483015480821660a0840152600160701b90041660c0820152611a71908888887f0000000000000000000000000000000000000000000000000000000000000000613310565b611a7c8a88886133f2565b6001600160801b0390811683526040805161012081018252835480841660e08301908152600160801b91829004851661010084015282526001850154602080840191909152835180850185526002870154808716825292909204909416938101939093529081019190915260038201546001600160781b03811660608301526001600160701b03600160781b90910481166080830152600483015480821660a0840152600160701b90041660c0820152611b39908b90898861342c565b6001600160801b03166020830152611b737f000000000000000000000000000000000000000000000000000000000000000088868661350f565b8151600282018054600090611b929084906001600160801b0316614c07565b92506101000a8154816001600160801b0302191690836001600160801b0316021790555081602001518160000160020160000160108282829054906101000a90046001600160801b0316611be69190614c07565b82546101009290920a6001600160801b0381810219909316918316021790915583516001600160a01b038c16600090815260068501602052604081208054929450929091611c3691859116614c07565b92506101000a8154816001600160801b0302191690836001600160801b0316021790555081602001518160060160008a6001600160a01b03166001600160a01b0316815260200190815260200160002060000160108282829054906101000a90046001600160801b0316611caa9190614c07565b82546101009290920a6001600160801b0381810219909316918316021790915582546001600160701b038a1692508391600091611ce991859116614c07565b92506101000a8154816001600160801b0302191690836001600160801b031602179055508681600001600301600f8282829054906101000a90046001600160701b0316611d369190614bba565b92506101000a8154816001600160701b0302191690836001600160701b03160217905550858160000160040160008282829054906101000a90046001600160701b0316611d839190614cc1565b92506101000a8154816001600160701b0302191690836001600160701b031602179055508481600001600401600e8282829054906101000a90046001600160701b0316611dd09190614cc1565b92506101000a8154816001600160701b0302191690836001600160701b03160217905550897f7011310da283c9f4aa8c425e1551efb8e810af6b3bde6b665391b42c2c74e7d382600001604051611e2791906148b5565b60405180910390a2876001600160a01b0316896001600160a01b0316336001600160a01b03167fa22eb0c7b0eeea07be907f0202c88c497e4e748da09f590c90e48285b03a18068d8b87604051611e8093929190614ac5565b60405180910390a450600060015598975050505050505050565b60009081526020819052604090206001015490565b611eb761400d565b506000828152602081815260408083206001600160a01b03851684526006018252918290208251808401909352546001600160801b038082168452600160801b909104169082015292915050565b6000818152602081815260409182902082516101208101845281546001600160801b0380821660e08401908152600160801b928390048216610100850152835260018401548386015285518087018752600285015480831682529290920416938101939093529283019190915260038101546001600160781b03811660608401526001600160701b03600160781b90910481166080840181905260049092015480821660a08501819052600160701b90910490911660c09093018390529093909250565b611fd161400d565b50600090815260208181526040918290208251808401909352600201546001600160801b038082168452600160801b909104169082015290565b7f000000000000000000000000000000000000000000000000000000000000000081565b7f000000000000000000000000000000000000000000000000000000000000000081565b600061205d614024565b6001541561207d5760405162461bcd60e51b81526004016103119061463f565b60018055428a116120a05760405162461bcd60e51b815260040161031190614886565b6001600160a01b038916158015906120c057506001600160a01b03881615155b6120dc5760405162461bcd60e51b815260040161031190614621565b6001600160a01b03891630148015906120fe57506001600160a01b0388163014155b61211a5760405162461bcd60e51b815260040161031190614750565b6000876001600160701b0316116121435760405162461bcd60e51b815260040161031190614750565b6000866001600160701b0316118061216457506000856001600160701b0316115b6121805760405162461bcd60e51b815260040161031190614750565b6121b4604051806040016040528060138152602001723a3432903137b93937bb90333ab731ba34b7b760691b815250613090565b6121da876001600160701b0316876001600160701b0316876001600160701b03166135a8565b60008a815260208190526040902060018101546122095760405162461bcd60e51b815260040161031190614750565b604080516101208101825282546001600160801b0380821660e08401908152600160801b92839004821661010085015283526001850154602080850191909152845180860186526002870154808416825293909304909116908201529181019190915260038201546001600160781b03811660608301526001600160701b03600160781b90910481166080830152600483015480821660a0840152600160701b90041660c08201526122de908989897f00000000000000000000000000000000000000000000000000000000000000006135ef565b6122e98b8989612df8565b6001600160701b03168252604080516060810190915260248082526123169190614df36020830139613090565b815161232a906001600160701b03166130d6565b604080516101208101825282546001600160801b0380821660e08401908152600160801b92839004821661010085015283526001850154602080850191909152845180860186526002870154808416825293909304909116908201529181019190915260038201546001600160781b03811660608301526001600160701b03600160781b90910481166080830152600483015480821660a0840152600160701b90041660c08201526123df908c908a89613699565b6001600160701b031660208301526123f5612ed1565b63ffffffff1660408301526020820151612432907f0000000000000000000000000000000000000000000000000000000000000000908787613771565b6001600160a01b038916600090815260078201602052604090206124569083613005565b81549093506001600160701b03891690829060009061247f9084906001600160801b0316614ce9565b92506101000a8154816001600160801b0302191690836001600160801b0316021790555081602001516001600160701b03168160000160000160000160108282829054906101000a90046001600160801b03166124dc9190614c07565b82546001600160801b039182166101009390930a92830291909202199091161790555081516003820180546001600160701b039092169160009061252a9084906001600160781b0316614be5565b92506101000a8154816001600160781b0302191690836001600160781b031602179055508781600001600301600f8282829054906101000a90046001600160701b03166125779190614cc1565b92506101000a8154816001600160701b0302191690836001600160701b03160217905550868160000160040160008282829054906101000a90046001600160701b03166125c49190614bba565b92506101000a8154816001600160701b0302191690836001600160701b031602179055508581600001600401600e8282829054906101000a90046001600160701b03166126119190614bba565b92506101000a8154816001600160701b0302191690836001600160701b0316021790555061267c8a896001600160701b03167f00000000000000000000000000000000000000000000000000000000000000006001600160a01b0316612d079092919063ffffffff16565b6001600160a01b0389166000908152600782016020526040812080549091908290869081106126bb57634e487b7160e01b600052603260045260246000fd5b9060005260206000200190508c7f7011310da283c9f4aa8c425e1551efb8e810af6b3bde6b665391b42c2c74e7d3846000016040516126fa91906148b5565b60405180910390a260408051808201909152600e81526d191d594b98dbdb1b185d195c985b60921b602082015281546127439190600160701b90046001600160701b0316613829565b505060006001555090999098509650505050505050565b7f000000000000000000000000000000000000000000000000000000000000000081565b61278661400d565b600154156127a65760405162461bcd60e51b81526004016103119061463f565b60018055428511156127ca5760405162461bcd60e51b815260040161031190614866565b6001600160a01b038416158015906127ea57506001600160a01b03831615155b6128065760405162461bcd60e51b815260040161031190614621565b6001600160a01b038416301480159061282857506001600160a01b0383163014155b6128445760405162461bcd60e51b815260040161031190614750565b600082116128645760405162461bcd60e51b815260040161031190614750565b6000858152602081815260409182902082516101208101845281546001600160801b0380821660e08401908152600160801b928390048216610100850152835260018401548386015285518087018752600285015480831682529290920416938101939093529283019190915260038101546001600160781b03811660608401526001600160701b03600160781b90910481166080840152600482015480821660a0850152600160701b90041660c0830152906129219084613872565b6001600160801b0390811683526040805161012081018252835480841660e08301908152600160801b91829004851661010084015282526001850154602080840191909152835180850185526002870154808716825292909204909416938101939093529081019190915260038201546001600160781b03811660608301526001600160701b03600160781b90910481166080830152600483015480821660a0840152600160701b90041660c08201526129db90846138cd565b6001600160801b03166020830152600181018054849190600090612a00908490614d25565b909155505033600090815260058201602052604081208054859290612a26908490614d25565b9091555050815181548290600090612a489084906001600160801b0316614ce9565b92506101000a8154816001600160801b0302191690836001600160801b0316021790555081602001518160000160000160000160108282829054906101000a90046001600160801b0316612a9c9190614ce9565b92506101000a8154816001600160801b0302191690836001600160801b03160217905550600082600001516001600160801b03161115612b17578151612b17906001600160a01b037f0000000000000000000000000000000000000000000000000000000000000000169087906001600160801b0316612d07565b60208201516001600160801b031615612b6e576020820151612b6e906001600160a01b037f0000000000000000000000000000000000000000000000000000000000000000169086906001600160801b0316612d07565b836001600160a01b0316856001600160a01b0316336001600160a01b03167f6b18578fcaee867974e1ea7cc70575906dab2b1739d695d6250bd77733009eb8898787604051612bbf93929190614b34565b60405180910390a4506000600155949350505050565b8151516040830151516000916001600160801b0390811691168110612bfd5782915050610873565b6001600160801b038316612c118282614ca2565b604086015151909150612c2d906001600160801b031682614c5f565b9050612c38816139e0565b95945050505050565b8151516040830151516000916001600160801b0390811691168110612c665750610873565b6040840151516001600160801b0316612c7f8282614d25565b90508460400151602001516001600160801b031681612c9e9190614ca2565b6040860151518651602001519192508291612cb99190614c73565b6001600160801b031610612cd1578392505050610873565b604085015160208101519051612c2d916001600160801b03871691612cf69190614c73565b8391906001600160801b03166139f6565b612d1b6001600160a01b0384168383613aa8565b505050565b60381b74ffffffffffffffffffffffffffff000000000000001690565b600083612d4a4282614d25565b9050612d5a61ffff841682614ca2565b9050612d6c6501000000000082614c47565b9050612c388465010000000000836139f6565b6000612c38612db3856001600160701b031687608001516001600160701b031688602001516139f69092919063ffffffff16565b60a08701516020880151612dd3916001600160701b0380891691166139f6565b60c08801516020890151612df3916001600160701b0380891691166139f6565b613afe565b600083612e054282614d25565b9050612e1a6001600160701b03841682614ca2565b9050612e27816020613b3f565b9050612e3c6001600160701b03851682614c47565b9050612c3881613b62565b600084612e544282614d25565b9050612e696001600160701b03851682614ca2565b9050612e8e7201fffffffffffffffffffffffffffe00000000602187901b1682614c47565b9050612ebc816001600160701b03851671ffffffffffffffffffffffffffff00000000602089901b16613b78565b9050612ec781613b62565b9695505050505050565b6000612edc43613bb8565b905090565b6000612ef5876001600160a01b0316613bc9565b90506000612f0b876001600160a01b0316613bc9565b60405163eeda4c9f60e01b8152909150339063eeda4c9f90612f37908990899089908990600401614946565b600060405180830381600087803b158015612f5157600080fd5b505af1158015612f65573d6000803e3d6000fd5b505050506000612f7d896001600160a01b0316613bc9565b90506000612f93896001600160a01b0316613bc9565b9050612fa86001600160701b03891685614c47565b821015612fc75760405162461bcd60e51b8152600401610311906147df565b612fda6001600160701b03881684614c47565b811015612ff95760405162461bcd60e51b8152600401610311906147df565b50505050505050505050565b8154600181018355600092835260209283902082519082018054948401516040909401516dffffffffffffffffffffffffffff199095166001600160701b03928316176dffffffffffffffffffffffffffff60701b1916600160701b9290941691909102929092176001600160e01b0316600160e01b63ffffffff9094169390930292909217905590565b6130d3816040516024016130a491906145ec565b60408051601f198184030181529190526020810180516001600160e01b031663104c13eb60e21b179052613c5b565b50565b6130d3816040516024016130ea91906149f6565b60408051601f198184030181529190526020810180516001600160e01b031663f5b1bba960e01b179052613c5b565b61314b6040518060400160405280600781526020016630b9b9b2ba24b760c91b815250846001600160701b0316613829565b6131836040518060400160405280600d81526020016c18dbdb1b185d195c985b13dd5d609a1b815250836001600160701b0316613829565b6131c06040518060400160405280600e81526020016d191d594b98dbdb1b185d195c985b60921b81525082602001516001600160701b0316613829565b6131f760405180604001604052806008815260200167191d594b9919589d60c21b81525082600001516001600160701b0316613829565b8051613210906001600160701b03908116908416614ca2565b81602001516001600160701b0316846001600160701b03166132329190614ca2565b1015612d1b5760405162461bcd60e51b815260040161031190614663565b6000613264856001600160a01b0316613bc9565b60405163c70449bf60e01b8152909150339063c70449bf9061328e908790879087906004016149aa565b600060405180830381600087803b1580156132a857600080fd5b505af11580156132bc573d6000803e3d6000fd5b5050505060006132d4866001600160a01b0316613bc9565b90506132e96001600160801b03861683614c47565b8110156133085760405162461bcd60e51b8152600401610311906146f0565b505050505050565b600061332361ffff831662010000614c29565b62ffffff169050600085876080015161333c9190614bba565b9050600061334f8860a001518785613c7c565b905060006133628960c001518786613c7c565b905061337089848484613ca9565b60a08901516001600160701b03808a169161338c911682614ca2565b600c1b90506001600160701b0384166133ae6001600160801b03871682614ca2565b90506133ba8183614c5f565b915081896001600160701b031610156133e55760405162461bcd60e51b815260040161031190614845565b5050505050505050505050565b6000836133ff4282614d25565b90506134146001600160701b03841682614ca2565b60201c9050612c2d6001600160701b03851682614c47565b6000846134394282614d25565b90508460a001516001600160701b0316816134549190614ca2565b9050602085608001516001600160701b0316901b816134739190614c47565b60808601519091506001600160701b039081169061349390861682614c47565b905085608001516001600160701b0316816134ae9190614ca2565b9050602081901b90506134e48660c001516001600160701b0316866001600160701b03166134dc9190614ca2565b8390836139f6565b91506134f96001600160701b03851683614c47565b9150613504826139e0565b979650505050505050565b6000613523856001600160a01b0316613bc9565b604051630886fef960e31b81529091503390634437f7c89061354d90879087908790600401614923565b600060405180830381600087803b15801561356757600080fd5b505af115801561357b573d6000803e3d6000fd5b505050506000613593866001600160a01b0316613bc9565b90506132e96001600160701b03861683614c47565b612d1b8383836040516024016135c093929190614b4f565b60408051601f198184030181529190526020810180516001600160e01b03166339e0829d60e21b179052613c5b565b600061360261ffff831662010000614d09565b62ffffff169050600085876080015161361b9190614cc1565b9050600061362e8860a001518785613d73565b905060006136418960c001518786613d73565b905061364f89848484613ca9565b60a08901516001600160701b03808a169161366b911682614ca2565b600c1b90506001600160701b03841661368d6001600160801b03871682614ca2565b90506133ba8282613da0565b6000846136a64282614d25565b90508460a001516001600160701b0316816136c19190614ca2565b9050602085608001516001600160701b0316901b816136e09190614c47565b60808601519091506001600160701b039081169061370090861682614d25565b905085608001516001600160701b03168161371b9190614ca2565b9050602081901b90506137518660c001516001600160701b0316866001600160701b03166137499190614ca2565b839083613b78565b91506137666001600160701b03851683614c47565b915061350482613b62565b6000613785856001600160a01b0316613bc9565b6040516390e4d0b160e01b815290915033906390e4d0b1906137af90879087908790600401614923565b600060405180830381600087803b1580156137c957600080fd5b505af11580156137dd573d6000803e3d6000fd5b5050505060006137f5866001600160a01b0316613bc9565b905061380a6001600160701b03861683614c47565b8110156133085760405162461bcd60e51b8152600401610311906147df565b61386e828260405160240161383f9291906145ff565b60408051601f198184030181529190526020810180516001600160e01b03166309710a9d60e41b179052613c5b565b5050565b8151516040830151516000916001600160801b03908116911681116138975750610873565b60408401515181906138b2906001600160801b031682614d25565b9050612c2d848660200151836139f69092919063ffffffff16565b815180516020909101516040840151516000926001600160801b039081169281169116821061391c57602085015161390890829086906139f6565b9050613913816139e0565b92505050610873565b6040850151516001600160801b03166139358382614d25565b90508560400151602001516001600160801b0316816139549190614ca2565b604087015151875160200151919250829161396f9190614c73565b6001600160801b03161161398557505050610873565b60408601515161399e906001600160801b031683614ca2565b91506139aa8183614d25565b91506139d9858760400151600001516001600160801b031688602001516139d19190614ca2565b8491906139f6565b9150612ec7825b806001600160801b03811681146108b657600080fd5b6000806000613a058686613dca565b915091508060001415613a2a5760008411613a1f57600080fd5b508290049050613aa1565b808411613a3657600080fd5b6000848688096000868103871696879004968286038190049583119094039391925081900304600101613a698184614ca2565b909317600386026002908118808802820302808802820302808802820302808802820302808802820302808802909103020293505050505b9392505050565b612d1b8363a9059cbb60e01b8484604051602401613ac7929190614585565b60408051601f198184030181529190526020810180516001600160e01b03166001600160e01b031990931692909217909152613de9565b6000828411158015613b105750818411155b15613b1c575082613aa1565b838311158015613b2c5750818311155b15613b38575081613aa1565b5092915050565b60ff811682811c9081901b83146108735780613b5a81614d6c565b949350505050565b806001600160701b03811681146108b657600080fd5b6000613b858484846139f6565b905060008280613ba557634e487b7160e01b600052601260045260246000fd5b8486091115613aa15780612c3881614d6c565b600061087364010000000083614d87565b600080613c456370a0823160e01b30604051602401613be89190614571565b604051602081830303815290604052906001600160e01b0319166020820180516001600160e01b0383818316178352505050506040518060600160405280602d8152602001614e17602d91396001600160a01b0386169190613e78565b905080806020019051810190613aa191906141e5565b80516a636f6e736f6c652e6c6f67602083016000808483855afa5050505050565b62010000600160801b03601084901b16613c9f6001600160701b03841683614c73565b613b5a9082614ce9565b600080613cd56001600160701b038616613ccf6001600160801b03808716908816614ca2565b90613dca565b91509150600080613d1d88608001516001600160701b031660208a60c001516001600160701b03168b60a001516001600160701b0316613d159190614ca2565b901b90613dca565b9150915080831015613d415760405162461bcd60e51b8152600401610311906146cc565b80831415613d695781841015613d695760405162461bcd60e51b8152600401610311906146cc565b5050505050505050565b62010000600160801b03601084901b16613d966001600160701b03841683614c73565b613b5a9082614c07565b6000613dac8284614c5f565b90506000613dba8385614d87565b11156108735780613b5a81614d6c565b6000806000198385098385029250828110838203039150509250929050565b6000613e3e826040518060400160405280602081526020017f5361666545524332303a206c6f772d6c6576656c2063616c6c206661696c6564815250856001600160a01b0316613f0a9092919063ffffffff16565b805190915015612d1b5780806020019051810190613e5c91906141ad565b612d1b5760405162461bcd60e51b8152600401610311906147fb565b6060613e8384613f19565b613e9f5760405162461bcd60e51b81526004016103119061470c565b600080856001600160a01b031685604051613eba9190614555565b600060405180830381855afa9150503d8060008114613ef5576040519150601f19603f3d011682016040523d82523d6000602084013e613efa565b606091505b5091509150612ec7828286613f1f565b6060613b5a8484600085613f58565b3b151590565b60608315613f2e575081613aa1565b825115613f3e5782518084602001fd5b8160405162461bcd60e51b815260040161031191906145ec565b606082471015613f7a5760405162461bcd60e51b815260040161031190614686565b613f8385613f19565b613f9f5760405162461bcd60e51b815260040161031190614771565b600080866001600160a01b03168587604051613fbb9190614555565b60006040518083038185875af1925050503d8060008114613ff8576040519150601f19603f3d011682016040523d82523d6000602084013e613ffd565b606091505b5091509150613504828286613f1f565b604080518082019091526000808252602082015290565b604080516060810182526000808252602082018190529181019190915290565b80356108b681614ddd565b600082601f83011261405f578081fd5b8135602061407461406f83614b96565b614b65565b8281528181019085830183850287018401881015614090578586fd5b855b858110156140b5576140a382614163565b84529284019290840190600101614092565b5090979650505050505050565b600082601f8301126140d2578081fd5b813560206140e261406f83614b96565b82815281810190858301838502870184018810156140fe578586fd5b855b858110156140b557813584529284019290840190600101614100565b60008083601f84011261412d578182fd5b50813567ffffffffffffffff811115614144578182fd5b60208301915083602082850101111561415c57600080fd5b9250929050565b80356001600160701b03811681146108b657600080fd5b80356001600160801b03811681146108b657600080fd5b6000602082840312156141a2578081fd5b8151613aa181614ddd565b6000602082840312156141be578081fd5b81518015158114613aa1578182fd5b6000602082840312156141de578081fd5b5035919050565b6000602082840312156141f6578081fd5b5051919050565b6000806040838503121561420f578081fd5b82359150602083013561422181614ddd565b809150509250929050565b60008060008060008060008060e0898b031215614247578384fd5b8835975061425760208a01614044565b965061426560408a01614044565b9550606089013567ffffffffffffffff80821115614281578586fd5b61428d8c838d016140c2565b965060808b01359150808211156142a2578586fd5b6142ae8c838d0161404f565b955060a08b01359150808211156142c3578485fd5b6142cf8c838d0161404f565b945060c08b01359150808211156142e4578384fd5b506142f18b828c0161411c565b999c989b5096995094979396929594505050565b60008060008084860360a081121561431b578485fd5b85359450602086013561432d81614ddd565b9350604086013561433d81614ddd565b92506040605f1982011215614350578182fd5b5061435b6040614b65565b6143676060870161417a565b81526143756080870161417a565b6020820152939692955090935050565b60008060008060008060008060e0898b0312156143a0578384fd5b8835975060208901356143b281614ddd565b965060408901356143c281614ddd565b95506143d060608a01614163565b94506143de60808a01614163565b93506143ec60a08a01614163565b925060c089013567ffffffffffffffff811115614407578283fd5b6142f18b828c0161411c565b60008060008060808587031215614428578182fd5b84359350602085013561443a81614ddd565b9250604085013561444a81614ddd565b9396929550929360600135925050565b6000815180845260208085019450808401835b838110156144925781516001600160701b03168752958201959082019060010161446d565b509495945050505050565b60008284528282602086013780602084860101526020601f19601f85011685010190509392505050565b600081518084526144df816020860160208601614d3c565b601f01601f19169290920160200192915050565b80516001600160801b03908116835260209182015116910152565b546001600160801b038116825260801c602090910152565b6001600160701b038082511683528060208301511660208401525063ffffffff60408201511660408301525050565b60008251614567818460208701614d3c565b9190910192915050565b6001600160a01b0391909116815260200190565b6001600160a01b03929092168252602082015260400190565b6020808252825182820181905260009190848201906040850190845b818110156145e0576145cd838551614526565b92840192606092909201916001016145ba565b50909695505050505050565b600060208252613aa160208301846144c7565b60006040825261461260408301856144c7565b90508260208301529392505050565b6020808252600490820152635a65726f60e01b604082015260600190565b6020808252600a90820152695265656e7472616e637960b01b604082015260600190565b6020808252600990820152682337b93134b23232b760b91b604082015260600190565b60208082526026908201527f416464726573733a20696e73756666696369656e742062616c616e636520666f6040820152651c8818d85b1b60d21b606082015260800190565b6020808252600a9082015269496e76617269616e636560b01b604082015260600190565b60208082526002908201526104d360f41b604082015260600190565b60208082526024908201527f416464726573733a207374617469632063616c6c20746f206e6f6e2d636f6e746040820152631c9858dd60e21b606082015260800190565b602080825260079082015266125b9d985b1a5960ca1b604082015260600190565b6020808252601d908201527f416464726573733a2063616c6c20746f206e6f6e2d636f6e7472616374000000604082015260600190565b60208082526018908201527f466f7262696464656e2066726f6d20746865206f776e65720000000000000000604082015260600190565b6020808252600290820152614d4f60f01b604082015260600190565b6020808252602a908201527f5361666545524332303a204552433230206f7065726174696f6e20646964206e6040820152691bdd081cdd58d8d9595960b21b606082015260800190565b6020808252600790820152664d696e696d756d60c81b604082015260600190565b60208082526006908201526541637469766560d01b604082015260600190565b602080825260079082015266115e1c1a5c995960ca1b604082015260600190565b6040810161087382846144f3565b61012081016148c4828461450e565b600183015460408301526148de606083016002850161450e565b60038301546001600160781b03811660a084015260781c6001600160701b0390811660c084015260049093015480841660e084015260701c9092166101009091015290565b60006001600160701b038516825260406020830152612c3860408301848661449d565b60006001600160701b03808716835280861660208401525060606040830152612ec760608301848661449d565b6001600160701b0393841681529183166020830152909116604082015260600190565b6001600160781b0391909116815260200190565b60006001600160801b038516825260406020830152612c3860408301848661449d565b6001600160801b0392831681529116602082015260400190565b61ffff91909116815260200190565b90815260200190565b600060c08201888352602060c08185015281895180845260e086019150828b019350845b81811015614a3f57845183529383019391830191600101614a23565b50508481036040860152614a53818a61445a565b925050508281036060840152614a69818761445a565b9150506001600160801b03808516608084015280841660a084015250979650505050505050565b83815260a08101614aa460208301856144f3565b613b5a60608301846144f3565b82815260808101613aa16020830184614526565b8381526001600160701b038316602082015260808101613b5a60408301846144f3565b8581526001600160701b0385166020820152604081018490526060810183905260e08101612ec76080830184614526565b8381526020810183905260a08101613b5a6040830184614526565b8381526020810183905260808101613b5a60408301846144f3565b9283526020830191909152604082015260600190565b604051601f8201601f1916810167ffffffffffffffff81118282101715614b8e57614b8e614dc7565b604052919050565b600067ffffffffffffffff821115614bb057614bb0614dc7565b5060209081020190565b60006001600160701b03808316818516808303821115614bdc57614bdc614d9b565b01949350505050565b60006001600160781b03808316818516808303821115614bdc57614bdc614d9b565b60006001600160801b03808316818516808303821115614bdc57614bdc614d9b565b600062ffffff808316818516808303821115614bdc57614bdc614d9b565b60008219821115614c5a57614c5a614d9b565b500190565b600082614c6e57614c6e614db1565b500490565b60006001600160801b0380831681851681830481118215151615614c9957614c99614d9b565b02949350505050565b6000816000190483118215151615614cbc57614cbc614d9b565b500290565b60006001600160701b0383811690831681811015614ce157614ce1614d9b565b039392505050565b60006001600160801b0383811690831681811015614ce157614ce1614d9b565b600062ffffff83811690831681811015614ce157614ce1614d9b565b600082821015614d3757614d37614d9b565b500390565b60005b83811015614d57578181015183820152602001614d3f565b83811115614d66576000848401525b50505050565b6000600019821415614d8057614d80614d9b565b5060010190565b600082614d9657614d96614db1565b500690565b634e487b7160e01b600052601160045260246000fd5b634e487b7160e01b600052601260045260246000fd5b634e487b7160e01b600052604160045260246000fd5b6001600160a01b03811681146130d357600080fdfe6475654f75742e646562742066726f6d2074686520626f72726f772066756e6374696f6e62616c616e63654f662043616c6c20746f2049455243323020746f6b656e206e6f74207375636365737366756ca2646970667358221220d741309459dce4bb493036dfed4cb854b5eb597c99ca07672601d38c40b50cd964736f6c63430008010033a2646970667358221220ce9cf9d3012b48aa14fe3ccafcf7877c85fb89ce8d6ffbfec618798d2b3b007264736f6c63430008010033",
  "devdoc": {
    "author": "Timeswap Labs",
    "kind": "dev",
    "methods": {
      "acceptOwner()": {
        "details": "Set the pending owner as the owner of the factory.Can only be called by the pending owner."
      },
      "constructor": {
        "params": {
          "_fee": "The chosen fee rate.",
          "_owner": "The chosen owner address.",
          "_protocolFee": "The chosen protocol fee rate."
        }
      },
      "createPair(address,address)": {
        "details": "Creates a Timeswap Pool based on ERC20 pair parameters.Cannot create a Timeswap Pool with the same pair parameters.",
        "params": {
          "asset": "The address of the ERC20 being lent and borrowed.",
          "collateral": "The address of the ERC20 as the collateral."
        }
      },
      "setOwner(address)": {
        "details": "Set the pending owner of the factory.Can only be called by the current owner.",
        "params": {
          "_pendingOwner": "the chosen pending owner."
        }
      }
    },
    "stateVariables": {
      "fee": {
        "details": "Return the fee earned by liquidity providers.",
        "return": "The fee following UQ.16 format."
      },
      "getPair": {
        "details": "Returns the address of a deployed pair.",
        "params": {
          "asset": "The address of the ERC20 being lent and borrowed.",
          "collateral": "The address of the ERC20 used as collateral."
        },
        "return": "pair The address of the Timeswap Pair contract."
      },
      "owner": {
        "details": "Return the address that receives the protocol fee.",
        "return": "The address of the owner."
      },
      "pendingOwner": {
        "details": "Return the new pending address to replace the owner.",
        "return": "The address of the pending owner."
      },
      "protocolFee": {
        "details": "Return the protocol fee per second earned by the owner.",
        "return": "The protocol fee per seconde following UQ0.40 format."
      }
    },
    "title": "Timeswap Factory",
    "version": 1
  },
  "userdoc": {
    "kind": "user",
    "methods": {},
    "notice": "It is recommnded to use Timeswap Convenience to interact with this contract.All error messages are coded and can be found in the documentation.",
    "version": 1
  },
  "storageLayout": {
    "storage": [
      {
        "astId": 1208,
        "contract": "contracts/TimeswapFactory.sol:TimeswapFactory",
        "label": "owner",
        "offset": 0,
        "slot": "0",
        "type": "t_address"
      },
      {
        "astId": 1212,
        "contract": "contracts/TimeswapFactory.sol:TimeswapFactory",
        "label": "pendingOwner",
        "offset": 0,
        "slot": "1",
        "type": "t_address"
      },
      {
        "astId": 1231,
        "contract": "contracts/TimeswapFactory.sol:TimeswapFactory",
        "label": "getPair",
        "offset": 0,
        "slot": "2",
        "type": "t_mapping(t_contract(IERC20)623,t_mapping(t_contract(IERC20)623,t_contract(IPair)3699))"
      }
    ],
    "types": {
      "t_address": {
        "encoding": "inplace",
        "label": "address",
        "numberOfBytes": "20"
      },
      "t_contract(IERC20)623": {
        "encoding": "inplace",
        "label": "contract IERC20",
        "numberOfBytes": "20"
      },
      "t_contract(IPair)3699": {
        "encoding": "inplace",
        "label": "contract IPair",
        "numberOfBytes": "20"
      },
      "t_mapping(t_contract(IERC20)623,t_contract(IPair)3699)": {
        "encoding": "mapping",
        "key": "t_contract(IERC20)623",
        "label": "mapping(contract IERC20 => contract IPair)",
        "numberOfBytes": "32",
        "value": "t_contract(IPair)3699"
      },
      "t_mapping(t_contract(IERC20)623,t_mapping(t_contract(IERC20)623,t_contract(IPair)3699))": {
        "encoding": "mapping",
        "key": "t_contract(IERC20)623",
        "label": "mapping(contract IERC20 => mapping(contract IERC20 => contract IPair))",
        "numberOfBytes": "32",
        "value": "t_mapping(t_contract(IERC20)623,t_contract(IPair)3699)"
      }
    }
  }
}